:020000040800F2
:1000000000000220110A00080D0A0008C55C000863
:100010000D0A00080D0A00080D0A00080000000083
:100020000000000000000000000000000D0A0008B1
:100030000D0A0008000000000D0A0008495C0008D5
:100040000D0A00080D0A00080D0A00080D0A000834
:100050000D0A00080D0A00080D0A00080D0A000824
:100060000D0A00080D0A00080D0A00085158000882
:100070005D580008A947000869580008755800082D
:10008000850901087D4D00080D0A00080D0A0008C9
:100090000D0A00080D0A00080D0A00080D0A0008E4
:1000A0000D0A00080D0A00080D0A00080D0A0008D4
:1000B00045FD000851FD00085DFD0008B14D000838
:1000C0000D0A0008BD4D00080D0A0008B5F500082E
:1000D000C1F50008B9070108E90701081D08010872
:1000E0000D0A00080D0A0008000000000D0A0008B3
:1000F0000D0A00080D0A00080D0A00080D0A000884
:100100000D0A00080D0A000869FD0008CDF5000879
:1001100051080108850801080D0A00080D0A0008A9
:100120000D0A00080D0A0008F1F5000825F6000880
:10013000B90901080D0A00080D0A00080D0A000897
:1001400000000000000000000000000000000000AF
:100150000D0A00080D0A00080D0A0008B908010878
:10016000C94D00080D0A0008595C00087D5C0008B4
:100170000D0A0008A15C00080D0A00080D0A00081D
:100180000D0A00080D0A0008ED0801081D09010804
:10019000D9F50008E5F500080D0A00080D0A000869
:1001A0000D0A00080D0A00080D0A00080D0A0008D3
:1001B000715500080D0A00080D0A00080D0A000814
:1001C0000D0A00080D0A000871ED00087DED000819
:1001D0000D0A000889ED00080D0A00080D0A000844
:1001E0000D0A00080D0A00080D0A00080D0A000893
:1001F0000D0A00080D0A00080D0A00080D0A000883
:100200000D0A00080D0A00080D0A00080D0A000872
:100210000D0A00080D0A00080D0A00080D0A000862
:100220000D0A00080D0A00080D0A00080000000071
:100230000D0A00080D0A0008000000000D0A000861
:100240000D0A00080D0A00080D0A00080D0A000832
:100250000D0A00080D0A00080D0A00080D0A000822
:100260000D0A00080D0A00080D0A00080D0A000812
:100270000D0A00080D0A00085109010800000000DD
:100280000D0A00080D0A00080D0A00080000000011
:08029000000000000D0A000847
:1002A00010B5054C237833B9044B13B10448AFF3B0
:1002B00000800123237010BD1806002400000000F8
:1002C0008887010808B5034B1BB103490348AFF306
:1002D000008008BD000000001C060024888701087B
:1002E00001F0FF01102A2BDB10F0070F08D010F8E7
:1002F000013B013A8B422DD010F0070F42B3F6D1EB
:10030000F0B441EA012141EA014122F007047FF003
:1003100000070023F0E80256083C85EA010586EA5A
:10032000010685FA47F5A3FA87F586FA47F6A5FA96
:1003300087F68EB9EED1F0BC01F0FF0102F00702A2
:1003400032B110F8013B013A83EA010313B1F8D14D
:100350000020704701387047002D06BF354603382E
:10036000073815F0010F07D1013015F4807F02BF67
:10037000013015F4C03F0130F0BC0138704700BFB8
:10038000034613F8012B002AFBD1181A01387047D5
:1003900081F0004102E000BF83F0004330B54FEA36
:1003A00041044FEA430594EA050F08BF90EA020FA3
:1003B0001FBF54EA000C55EA020C7FEA645C7FEA36
:1003C000655C00F0E2804FEA5454D4EB5555B8BF59
:1003D0006D420CDD2C4480EA020281EA030382EACA
:1003E000000083EA010180EA020281EA0303362D5C
:1003F00088BF30BD11F0004F4FEA01314FF4801C2F
:100400004CEA113102D0404261EB410113F0004F40
:100410004FEA03334CEA133302D0524263EB4303F7
:1004200094EA050F00F0A780A4F10104D5F1200E95
:100430000DDB02FA0EFC22FA05F2801841F10001F0
:1004400003FA0EF2801843FA05F359410EE0A5F1C4
:1004500020050EF1200E012A03FA0EFC28BF4CF0F5
:10046000020C43FA05F3C01851EBE37101F00045AB
:1004700007D54FF0000EDCF1000C7EEB00006EEBB8
:100480000101B1F5801F1BD3B1F5001F0CD3490842
:100490005FEA30004FEA3C0C04F101044FEA445299
:1004A00012F5800F80F09A80BCF1004F08BF5FEA20
:1004B000500C50F1000041EB045141EA050130BD00
:1004C0005FEA4C0C404141EB0101013C28BFB1F512
:1004D000801FE9D291F0000F04BF01460020B1FA5D
:1004E00081F308BF2033A3F10B03B3F120020CDA30
:1004F0000C3208DD02F1140CC2F10C0201FA0CF00E
:1005000021FA02F10CE002F11402D8BFC2F1200C72
:1005100001FA02F120FA0CFCDCBF41EA0C01904028
:10052000E41AA2BF01EB0451294330BD6FEA040471
:100530001F3C1CDA0C340EDC04F11404C4F120025C
:1005400020FA04F001FA02F340EA030021FA04F36E
:1005500045EA030130BDC4F10C04C4F1200220FAC5
:1005600002F001FA04F340EA0300294630BD21FA03
:1005700004F0294630BD94F0000F83F4801306BFC9
:1005800081F480110134013D4EE77FEA645C18BFBD
:100590007FEA655C29D094EA050F08BF90EA020F54
:1005A00005D054EA000C04BF1946104630BD91EA4C
:1005B000030F1EBF0021002030BD5FEA545C05D14F
:1005C0004000494128BF41F0004130BD14F580048E
:1005D0003CBF01F5801130BD01F0004545F0FE4102
:1005E00041F470014FF0000030BD7FEA645C1ABF37
:1005F000194610467FEA655C1CBF0B46024650EA6E
:10060000013406BF52EA033591EA030F41F4002199
:1006100030BD00BF90F0000F04BF0021704730B51F
:100620004FF4806404F132044FF000054FF00001F4
:1006300050E700BF90F0000F04BF0021704730B5B5
:100640004FF4806404F1320410F0004548BF40428A
:100650004FF000013EE700BF42004FEAE2014FEADF
:1006600031014FEA02701FBF12F07F4393F07F4FBA
:1006700081F06051704732F07F4208BF704793F0BD
:100680007F4F04BF41F40021704730B54FF46074D0
:1006900001F0004521F000411CE700BF50EA0102D3
:1006A00008BF704730B54FF000050AE050EA01027C
:1006B00008BF704730B511F0004502D5404261EBEC
:1006C00041014FF4806404F132045FEA915C3FF42D
:1006D000D8AE4FF003025FEADC0C18BF03325FEACA
:1006E000DC0C18BF033202EBDC02C2F1200300FA7B
:1006F00003FC20FA02F001FA03FE40EA0E0021FAA0
:1007000002F11444BDE600BF53B94AB9002908BF3D
:1007100000281CBF4FF0FF314FF0FF3000F074B9DC
:10072000ADF1080C6DE904CE00F006F8DDF804E048
:10073000DDE9022304B070472DE9F047089D044627
:100740008E46002B4DD18A42944669D9B2FA82F284
:1007500052B101FA02F3C2F1200120FA01F10CFAC0
:1007600002FC41EA030E94404FEA1C48210CBEFBF8
:10077000F8F61FFA8CF708FB16E341EA034306FB81
:1007800007F199420AD91CEB030306F1FF3080F010
:100790001F81994240F21C81023E63445B1AA4B25D
:1007A000B3FBF8F008FB103344EA034400FB07F7FF
:1007B000A7420AD91CEB040400F1FF3380F00A8140
:1007C000A74240F207816444023840EA0640E41B35
:1007D00000261DB1D4400023C5E900433146BDE8E1
:1007E000F0878B4209D9002D00F0EF800026C5E983
:1007F000000130463146BDE8F087B3FA83F6002E9B
:100800004AD18B4202D3824200F2F980841A61EB12
:10081000030301209E46002DE0D0C5E9004EDDE730
:1008200002B9FFDEB2FA82F2002A40F09280A1EB18
:100830000C014FEA1C471FFA8CFE0126200CB1FB6D
:10084000F7F307FB131140EA01410EFB03F0884266
:1008500008D91CEB010103F1FF3802D2884200F2F3
:10086000CB804346091AA4B2B1FBF7F007FB101185
:1008700044EA01440EFB00FEA64508D91CEB040423
:1008800000F1FF3102D2A64500F2BB800846A4EB7E
:100890000E0440EA03409CE7C6F12007B34022FA69
:1008A00007FC4CEA030C20FA07F401FA06F31C4398
:1008B000F9404FEA1C4900FA06F3B1FBF9F8200CA5
:1008C0001FFA8CFE09FB181140EA014108FB0EF0EB
:1008D000884202FA06F20BD91CEB010108F1FF3A3B
:1008E00080F08880884240F28580A8F10208614447
:1008F000091AA4B2B1FBF9F009FB101144EA014155
:1009000000FB0EFE8E4508D91CEB010100F1FF34FF
:100910006CD28E456AD90238614440EA0840A0FB97
:100920000294A1EB0E01A142C846A64656D353D06D
:100930005DB1B3EB080261EB0E0101FA07F722FA91
:1009400006F3F1401F43C5E9007100263146BDE8BA
:10095000F087C2F12003D8400CFA02FC21FA03F31D
:10096000914001434FEA1C471FFA8CFEB3FBF7F09E
:1009700007FB10360B0C43EA064300FB0EF69E42C3
:1009800004FA02F408D91CEB030300F1FF382FD25C
:100990009E422DD9023863449B1B89B2B3FBF7F604
:1009A00007FB163341EA034106FB0EF38B4208D9DD
:1009B0001CEB010106F1FF3816D28B4214D9023E1E
:1009C0006144C91A46EA004638E72E46284605E73C
:1009D0000646E3E61846F8E64B45A9D2B9EB02080D
:1009E00064EB0C0E0138A3E74646EAE7204694E79D
:1009F0004046D1E7D0467BE7023B614432E73046D0
:100A000009E76444023842E7704700BFFEE700BFD1
:100A10000B480C4A904203D0121A0B4915F064FEA1
:100A20000A480B4A904203D0121A002115F084FEA6
:100A300005F072FB15F024FE01F05AFEFEE700BF40
:100A40000000002418060024BC87010818060024B2
:100A50005C4F0724704700BF704700BF704700BF5E
:100A6000704700BF704700BF704700BF49424FF456
:100A700000721030C9B215F05FBE00BF704700BFF2
:100A80002020704780207047704700BF002A6BD03D
:100A9000013A2DE9F04F0C460025DFF8F0B04FEA9F
:100AA0005209DFF8ECA0DFF8EC80304F304E2DED2E
:100AB000028B87B09BF8001008342E4813F05AFBC5
:100AC0002D4B83ED010A2D4BA3F5804083ED090AE0
:100AD00014F0E6F92A4B2848B0EE408AD3ED008A9C
:100AE00014F032FADAED007A264860EE277AE8EE62
:100AF000287AB0EE670ACDED037A13F065FE002385
:100B000005AA03A9009300231F48059304AB8DEDAC
:100B1000030A13F0CDFC97ED007AA945DDED047AC8
:100B200005F10105D8ED005A27EE877A9DED036A9D
:100B3000D6ED006AA6EE257A26EE877A04ED027AD3
:100B4000D7ED005AD8ED006A67EEA57A96ED007AE7
:100B5000E6EE267A67EE277A44ED017AAAD107B04D
:100B6000BDEC028BBDE8F08F704700BFC0E50624E6
:100B700004000024A0060024D006002434E3062448
:100B8000B0E50624F0A20624AC970024A8E50624CC
:100B9000BCE5062498E5062410B504464FF404711C
:100BA00014F0C5FB204610BDF0B500F1080683B077
:100BB0000660F9B1044608460D46FFF7E1FB0F2831
:100BC000019005EB00070BD83A462946304614F051
:100BD00017FC019B226800216360D15403B0F0BD73
:100BE000002201A9204614F0B1FB019B06462060BB
:100BF000A360E9E7014814F09FFB00BF48780108B3
:100C00002DE9F04F4FF0B00885B0054600F1080718
:100C100000F18F0600F28F294FF47A7B4FF0000A23
:100C2000297B022303AA3846CDF800B0A6F1800440
:100C30008DF80CA08DF80D8004F062F9297B022359
:100C400003AA3846CDF800B08DF80CA08DF80DA0A1
:100C500004F056F91220CDF800B0022303AA8DF853
:100C60000D003846297B8DF80CA004F049F94FF4AB
:100C70007A7014F801CF4FF0400E297B02230090C8
:100C800003AA38468DF80CE08DF80DC004F038F951
:100C9000B442ECD104F1800608F101084E455FFA38
:100CA00088F8B9D105B0BDE8F08F00BF2DE9F04F4D
:100CB00085B0A1F1200504AC9DF83870009104E9DD
:100CC0000C00EBB25E2B00F29580036880465D4A13
:100CD000DB689DF8084093429DF8096040F09480DD
:100CE0008020B8F804302344834200F38380D8F88E
:100CF0000030554A9B68934240F088802020B8F825
:100D0000062093190192834274DC002E00F0898042
:100D100006FB05F56FF00040039B964628442E44E1
:100D2000B8F804A003EB4000023B03EB460B30F89D
:100D3000026FBCB30EF007034FF0010C4FEADE0266
:100D400051460CFA03FC0AF110034FFA8CFC03EB3A
:100D5000C21200236FEA0C0942440EE07F2907D833
:100D6000BEF11F0F04D815789FB14CEA0505157028
:100D70000133013201319C4214D006FA03F52D04EF
:100D8000ECD47F29F4D8BEF11F0FF1D81578002FCD
:100D9000EBD0013309EA0505013201319C4202F82A
:100DA000015CEAD158450EF1010EC0D1D8F80030EF
:100DB00054442449DA68A4B28A422DD18020844266
:100DC0001CD29B68204AA8F80440934221D12020DD
:100DD000019B834207D3D8F800301B4A9B6893429B
:100DE00029D11F230193DDE90003A8F8063005B0DF
:100DF000BDE8F08F002005B0BDE8F08FDA6811493A
:100E00008A4211D17F24DCE798476AE74046984739
:100E100075E740469847DBE740469047D8F80030F2
:100E2000CDE7B8F804A0C1E7404690470138D8F8AC
:100E3000003084B2C5E740469847013883B2019339
:100E4000D1E700BF850A0008810A00087F291ED863
:100E50001F2A1CD86BB1D3084FF0010C02F0070217
:100E600001EBC3130CFA02F2C1180B7C1A430A748B
:100E70007047D3084FF0010C02F0070201EBC313D7
:100E80000CFA02FCC1180A7C22EA0C020A747047B0
:100E90002DE9F04F89B008AC9DF84870019104E944
:100EA0000C000B78002B00F0AB801A469DF81880E0
:100EB0009DF819300646454690460393079B0593D7
:100EC000A8F12004E3B25E2B00F29E8033685E4AF4
:100ED000DB68934240F09B808020B3882B448342A0
:100EE00000F392803368594A9B68934240F09280A5
:100EF0002020F188039A02918B18834200F38480AA
:100F0000002A00F0918002FB04F46FF00049059B79
:100F1000A1441444B6F804B003EB4909023BCDF8F0
:100F2000108003EB44030C469A4639F802CFA5B370
:100F300004F007034FF0010EE20859460EFA03FED3
:100F40000BF110034FFA8EFE03EBC21200236FEA7F
:100F50000E0832440DE07F2906D81F2C04D81078E3
:100F600097B14EEA00001070013301320131AB42FB
:100F700013D00CFA03F00004EDD47F29F4D81F2C11
:100F8000F2D81078002FECD0013308EA00000132CB
:100F90000131AB4202F8010CEBD1D14504F101045F
:100FA000C3D1DDF8108032680BEB05042649D36805
:100FB000A4B28B4234D18020844204D3D368224926
:100FC0008B423AD17F249368204AB480934224D143
:100FD0002020029B834206D333681C4A9B689342BD
:100FE00025D11F230293029BF380019B1878404573
:100FF00007D113F8018F0193B8F1000F7FF460AFB0
:10100000002009B0BDE8F08F4FF00008EDE7304652
:10101000984762E7304698476BE730469847D8E7ED
:10102000304698473268C7E7B6F804B0BBE73046A9
:101030009847013883B20293D5E730469847013884
:10104000326884B2BFE700BF850A0008810A000841
:101050002DE9F04F83B05C1A0C9E002C9DF8349063
:10106000A6EB0208B8BF6442B8F1000FB8BFC8F1E0
:1010700000088B428CBF4FF0010A4FF0FF3A9642B6
:10108000A4EB080C51D84FF0FF357F2B019512D8F7
:101090001F2E10D8F50806F0070E012703EBC51523
:1010A0000544B9F1000F47D007FA0EF795F810E0A4
:1010B00047EA0E072F74964201D18B4229D0C8F11E
:1010C00000077F2914D81F2A12D8D50802F0070B71
:1010D0004FF0010E01EBC5150544B9F1000F1BD00F
:1010E0000EFA0BFE95F810B04EEA0B0E85F810E0E4
:1010F000B7EB4C0F4FEA4C0502DAACEB080C51444D
:10110000AC4202DD019DA4442A449942D9D19642C1
:10111000D7D103B0BDE8F08F0EFA0BFB95F810E0C5
:101120002EEA0B0E85F810E0E2E701257F2B0195F2
:10113000C5D81F2EAED9C2E707FA0EFE2F7C964205
:1011400027EA0E072F74B8D0B9E700BF00000000EF
:101150002DE9F04F2DED068B83B01F4680460D46DE
:101160009DF8503016460193139B002BC0F221824C
:10117000129A134406EE103ADDED127AB8EEC66B01
:101180009FEDCD4BB8EEE77B9FEDCD5B27EE047B6B
:1011900026EE046B87EE050B86EE05ABF7EEC08BF3
:1011A000B0EE680A14F010FA07EE907AB7EECAAB08
:1011B000F8EE679AB0EE408AB0EE680A14F094FD3B
:1011C00060EE698AB0EE4A0A14F0FEF9B0EE409A79
:1011D000B0EE4A0A14F088FD20EE690A29EE888AEA
:1011E00029EE899A70EE687AF0EE006A39EE487A54
:1011F00067EEA77AE7EE077AF4EEE67AF1EE10FAF8
:1012000006D5139BB42B40F396804FF0010901E003
:101210004FF00009012478424FF0000C0095E31BC9
:10122000214627462246A340B9F1000F6AD1424227
:1012300006EE90CACCF1000107EE102AB8EEE66A7D
:1012400007EE901A06EE900AB8EEC77A139A66EE89
:10125000084AF8EEE77AB42A27EE284AF8EEE66A5A
:1012600067EE885A74EEC43A26EEA85A26EE096A4A
:1012700066EE806A67EE897A27EE007AF5EEC03A6C
:1012800040F3F280F1EE10FA00F17F8176EE473AFA
:1012900074EEC54AF5EEC03AF1EE10FAF5EEC04A2A
:1012A000CCBF01220022F1EE10FA00F1778136EE78
:1012B000666A35EEC55AB5EEC06AF1EE10FAB5EEC3
:1012C000C05ACCBF01210021F1EE10FA00F16F816C
:1012D00077EEE66AF5EEC06AF1EE10FACCBF0127B0
:1012E000002775EEC45AF5EEC05AF1EE10FA00F17F
:1012F000478177EEC77AF5EEC07AF1EE10FACCBFEF
:1013000001240024002A40F08A80002964D1BFB95A
:10131000C4BB9C4558DB0CF1010C03EB4C0E1CEBE1
:10132000000F0EF1010E00F0C08098424FDB7346B3
:1013300000287FF779AF03B0BDEC068BBDE8F08FD6
:10134000009DA6EB0C0E00EB050ABAF17F0FDFD86B
:10135000BEF11F0FDCD84FEADE0B019D0AEBCB1A62
:10136000002D00F0B1800EF0070BC2444FF0010ECB
:101370000EFA0BFE9AF810B04EEA0B0E8AF810E047
:10138000002CC6D0009DA6EB0C0EA5EB000ABAF10E
:101390007F0FBED8BEF11F0FBBD84FEADE0B019DF9
:1013A0000AEBCB1A002D00F0AE800EF0070BC24402
:1013B0004FF0010E9C450EFA0BFE9AF810B04EEA63
:1013C0000B0E8AF810E0A6DA98429E46AFDA01309A
:1013D0000EEB40030133ABE7009D0CEB060E00EB78
:1013E000050ABAF17F0F92D8BEF11F0F8FD84FEACE
:1013F000DE0B019D0AEBCB1A002D73D00EF0070B0C
:10140000C2444FF0010E0EFA0BFE9AF810B04EEAED
:101410000B0E8AF810E0002F3FF47AAF90E7009DA2
:101420000CEB060EA5EB000ABAF17F0F3FF66DAF8D
:10143000BEF11F0F3FF669AF4FEADE0B019D0AEBCD
:10144000CB1A002D6DD00EF0070BC2444FF0010EE9
:101450000EFA0BFE9AF810B04EEA0B0E8AF810E066
:1014600000293FF454AFB7E7F1EE10FA7ED44A46B4
:1014700074EEC54AF5EEC04AF1EE10FA6CD40021C4
:1014800035EEC55AB5EEC05AF1EE10FA5AD400271F
:1014900075EEC45AF5EEC05AF1EE10FA3FF529AFD9
:1014A0000024002A3FF431AFB9E798428FDB0023D4
:1014B0003BE700BFAFF300807A008BFCFA210940C4
:1014C0000000000000806640C2444FF0010B0EF0A7
:1014D000070E0BFA0EFE9AF810B02BEA0E0E8AF8E1
:1014E00010E015E7C2444FF0010B0EF0070E0BFAA7
:1014F0000EFE9AF810B02BEA0E0E8AF810E0002FBC
:101500003FF406AF1CE7C2444FF0010B0EF0070E8C
:101510000BFA0EFE9AF810B02BEA0E0E8AF810E0C5
:10152000F7E6C2444FF0010B0EF0070E0BFA0EFE69
:101530009AF810B02BEA0E0E8AF810E000293FF45A
:10154000E6AE49E777EEE66AF5EEC06AF1EE10FA2C
:10155000CCBF012700279BE736EE666AB5EEC06A6E
:10156000F1EE10FACCBF0121002189E776EE473A6F
:10157000F5EEC03AF1EE10FACCBF0122002277E777
:101580000124002A3FF4C1AE49E774EEC54A0122A6
:10159000F5EEC04AF1EE10FA7FF589AE35EEC55A88
:1015A0000121B5EEC05AF1EE10FA7FF591AE012798
:1015B00097E6DDE91223134406EE102A1293139BDB
:1015C0005B421393D8E500BF2DE9F04F89B01D466B
:1015D000884606901046129C10F8013B13999DF81E
:1015E0005060009233B1002210F8013B0132002B11
:1015F000FAD193B22A78687812FB03F302B21BB2D5
:1016000023EAE373082900F2A981DFE811F002015F
:1016100014012001340142015001670171010900E8
:10162000A18827880F44B4F90610FF1A0029BFB219
:10163000C0F2FF80B4F802C006980CEB6104C280CF
:10164000A4EB52028380078094B24480A64AD8F863
:10165000003011460192DA688A4240F08D81802084
:10166000B84205D8DA6801998A4240F09A817F270A
:101670009E4A9B68A8F804709342039240F08981C7
:101680002020A04207D8D8F80030039A9B689342E4
:1016900040F082811F24009BA8F8064093F800B018
:1016A0006B782C7804936B680793BBF1000F00F004
:1016B000AC80ABF12005EBB25E2B00F22E81D8F8A6
:1016C0000030019ADB68934240F02A818020B8F80C
:1016D000043023449842C0F22081D8F80030039AA5
:1016E0009B68934240F01F812020B8F80610049AAE
:1016F00002918B189842C0F21081002A00F01E81DE
:1017000002FB05F56FF0004E079BAE441544CDF883
:1017100014B003EB4E0E023BB8F804A003EB4503F4
:101720000D469B463EF8027FA4B305F007034FF039
:10173000010CEA0851460CFA03FC0AF110034FFAB7
:101740008CFC03EBC21200236FEA0C0942440DE04B
:101750007F2906D81F2D04D8107896B14CEA0000D6
:1017600010700133013201319C4213D007FA03F0AB
:101770000004EDD47F29F4D81F2DF2D81078002E64
:10178000ECD0013309EA0000013201319C4202F839
:10179000010CEBD1F34505F10105C3D1DDF814B01F
:1017A000D8F800200AEB04050199D368ADB28B424A
:1017B00040F0BF808020854205D3D36801998B42D9
:1017C00040F0C5807F259368039AA8F8045093429F
:1017D00040F0AC802020029B834208D3D8F8003030
:1017E000039A9B68934240F0AC801F230293029BB4
:1017F000A8F80630009A13785B4506D112F801BFAD
:101800000092BBF1000F7FF454AF069809B0BDE819
:10181000F08FB4F9041027880029B8BF013107EB15
:101820006107B4F90610A7EB63070029BFB2BFF642
:1018300001AF0131FEE6B4F900700699B4F9024037
:101840000F80BFB24C80A4B28B80CA80FEE6B4F990
:10185000041027880029B4F90240B8BF013107EB12
:10186000610706998B80A7EB63034C80A4B29FB2FB
:10187000CA800F80EAE6A1882788B4F902400F44A5
:1018800006998B80FB1A4C80A4B29FB2CA800F804D
:10189000DCE6E78861883944B4F90070081A0699D3
:1018A00084B20F808B80BFB2CA804C80CEE6B4F980
:1018B000041027880029B8BF013107EB6107A7EBA7
:1018C0006307B4F802C0BFB2E488069964448B8011
:1018D000201ACA800F8084B24C80B7E62788A1887E
:1018E0000F44FF1AEDE700BF850A0008810A0008CF
:1018F000B4F90610B4F802C00029B4F900700698D3
:10190000B8BF0131C2800CEB610407808380BFB295
:10191000A4EB520294B2448098E64FF0000B69E7C2
:1019200040469847D3E640469847DEE6404698470B
:1019300051E740469847D8F800203CE7B8F804A0A3
:101940002EE740469847013883B202934FE740465E
:1019500098470138D8F8002085B234E7D8F800302D
:101960000024069A1249148054809480D480DA6846
:1019700001918A4205D0274640469047D8F800306A
:101980006EE69B680B4AA8F80440934203923FF42A
:1019900082AE4046984774E640469847013884B284
:1019A00079E6404690470138D8F8003087B25FE6C4
:1019B000850A0008810A00082DE9F04F87B09DF8DC
:1019C0004850109C2E4601959DF844509EB3994274
:1019D0002ED89946A24228D87F29164694BF0023C4
:1019E000012308E09CF810804EEA080E8CF810E005
:1019F0000136B44219D31F2EFAD8002BF8D14FEA82
:101A0000D60C06F0070E4FF0010801EBCC1C08FACB
:101A10000EFE8444002DE5D19CF810B001362BEA6F
:101A20000E0AB4428CF810A0E5D201318945D1D21A
:101A300007B0BDE8F08FA3EB0108B8F1000FB8BF05
:101A4000C8F100089942C0F04E817F2B4FF0FF3A59
:101A500094BF002601261F2A009694BF0027012765
:101A60000297A6B99FB9D60802F0070C012703EB2D
:101A7000C6160644002D00F0948107FA0CF796F87C
:101A800010C047EA0C073774002602960096994268
:101A900000F09781464694468E46BEF17F0F16D8D9
:101AA000BCF11F0F13D84FEADC070CF0070B4FF007
:101AB00001090EEBC7170744002D00F0398109FA20
:101AC0000BF997F810B049EA0B0987F810907700E6
:101AD00018BFD644B84502DD46440CF1FF3C7345BF
:101AE000DBD16245D9D100260496A4EB0209009F00
:101AF000B9F1000FB8BFC9F100091F2C94BF00262F
:101B00000126A242C9F100080396C0F02381002FEC
:101B100040F05081002E40F04D814FF0FF3600968E
:101B2000E60803EBC6160644002D00F01E814FF0B8
:101B3000010C04F007070CFA07F796F810C047EA03
:101B40000C07377400260396A24200F03D81C4467C
:101B500016461F4605927F2F15D81F2E13D84FEA21
:101B6000D60E06F0070B4FF0010A07EBCE1E864497
:101B7000002D00F0E6800AFA0BFA9EF810B04AEA4F
:101B80000B0A8EF810A0B8EB4C0F4FEA4C0E02DA9D
:101B9000ACEB090C013FBEF1000F01D0009A1644D6
:101BA000BB42D8D1B442D6D1059AA1EB030EBEF107
:101BB000000FB8BFCEF1000E7F2994BF4FF0000A8E
:101BC0004FF0010A99428CBF4FF001094FF0FF39E5
:101BD000BAF1000F13D1039E8EB9E60801EBC616C9
:101BE0000644002D00F0D3804FF0010C04F00707ED
:101BF0000CFA07F796F810C047EA0C073774049EF2
:101C000026BB774626467F2B14D81F2E12D84FEAC4
:101C1000D60C06F0070B4FF0010803EBCC1C8444F4
:101C2000002D73D008FA0BF89CF810B048EA0B08A6
:101C30008CF810805FEA470C18BF4B44E64501DD85
:101C40007744013E9942DED1B442DCD1A2EB040ECE
:101C5000BEF1000FB8BFCEF1000EA2428CBF4FF014
:101C600001084FF0FF38CEF1000CBAF1000F0ED191
:101C7000029B63B9D30802F00707012601EBC313E7
:101C80000344002D7CD0BE401F7C3E431E74019B4C
:101C9000002B7FF4CDAE66460B467F2B12D81F2C4F
:101CA00010D8E70804F0070A4FF0010903EBC71743
:101CB0000744A5B309FA0AF997F810A049EA0A09F6
:101CC00087F81090BCEB460F4FEA460702DAA6EB06
:101CD0000E06013B07B144449942DED1A242DCD159
:101CE00007B0BDE8F08F1F2A4FF0010A94BF00260D
:101CF00001267F2B029694BF002701270097002E14
:101D00007FF4C8AE002F3FF4AEAEC3E608FA0BFB7B
:101D10009CF8108028EA0B088CF810808AE709FAF2
:101D20000AFA97F8109029EA0A0987F81090C9E78B
:101D300009FA0BFB97F8109029EA0B0987F8109025
:101D4000C5E60AFA0BFB9EF810A02AEA0B0A8EF8E9
:101D500010A018E797BB8EBB01260096E60803EBA0
:101D6000C6160644002D7FF4E2AE012704F0070CEE
:101D7000039507FA0CFC377C27EA0C073774E3E677
:101D800006FA07F71E7C26EA07061E747FE701277E
:101D900004F0070C07FA0CFC377C27EA0C073774B1
:101DA0002DE707FA0CFC377C029527EA0C07009513
:101DB00037746CE64FF0FF360096C5E601260096B4
:101DC000C5E60126049690E601260196EDE600BFE1
:101DD0002DE9F04FDFF8DCB28BB04FF40072FF2139
:101DE0000BF1100014F0A8FCAE49AF4B4FF40032D9
:101DF0000968CBF8042018785A7891F800A05B683D
:101E000003920693BAF1000F76D08946AAF1200317
:101E1000DAB25E2A00F24381BBF8048008EB0002CC
:101E2000802A059200F33B81BBF8062003990492B7
:101E30000A44202A00F33381002947D0039A6FF027
:101E4000004CCDF81CA002FB03F3049D9C441344FA
:101E5000069A02EB4C0C023A02EB43039A463CF81A
:101E6000026F68B305F007030127EA0841469F4067
:101E700008F110037FB203EBC21200236FEA070ED2
:101E80005A440CE07F2905D81F2D03D814780EEA98
:101E900004041470013301320131834210D006FA78
:101EA00003F42404EED47F29F4D81F2DF2D814783B
:101EB0000133013201313C43834202F8014CEED13F
:101EC000E24505F10105CAD1DDF81CA0049ABDF870
:101ED00014301F2A28BF1F227F2B28BF7F23ABF877
:101EE0000620ABF8043099F80030534504D119F8B6
:101EF00001AFBAF1000F89D14FF48813CBF8043049
:101F00006A4B1B6893F800A0BAF1000F76D099468F
:101F1000AAF12003DAB25E2A00F2BE80BBF8048088
:101F200008EB0002802A059200F3B680BBF8062079
:101F3000039904920A44202A00F3AE80002947D076
:101F4000039A6FF0004CCDF81CA002FB03F3049D34
:101F50009C441344069A02EB4C0C023A02EB4303F6
:101F60009A463CF8026F68B305F007030127EA08B8
:101F700041469F4008F110037FB203EBC2120023D9
:101F80006FEA070E5A440CE07F2905D81F2D03D8AD
:101F900014780EEA040414700133013201319842BE
:101FA00010D006FA03F42404EED47F29F4D81F2DB0
:101FB000F2D814780133013201313C43984202F8DF
:101FC000014CEED1D44505F10105CAD1DDF81CA0C4
:101FD000049ABDF814301F2A28BF1F227F2B28BF68
:101FE0007F23ABF80620ABF8043099F80030534556
:101FF00004D119F801AFBAF1000F89D1DFF8B88028
:102000004FF0B00908F5007A4FF47A7600250223E4
:1020100009AA9BF80C10A8F18004254800968DF8B9
:1020200024508DF8259002F06BFF022309AA9BF83B
:102030000C101F4800968DF824508DF8255002F0A2
:102040005FFF1221022309AA19488DF82510009676
:102050009BF80C108DF8245002F052FF4FF47A7761
:1020600014F8015F4026022309AA9BF80C101048BF
:1020700000978DF824608DF8255002F041FFA045AF
:10208000ECD108F1800809F10109C2455FFA89F92C
:10209000BAD10BB0BDE8F08F4FF0000AA5E74FF0C2
:1020A000000A20E780E306245800002484E3062485
:1020B00090E3062488E3062417E40624012810B5DB
:1020C00082B004D0022825D088B102B010BD002112
:1020D00019480824194A1A4B009482F8441042689F
:1020E00013F0D6F902B0BDE81040FFF771BE124CF4
:1020F0004FF0020C0623114A01462046009382F855
:1021000044C0104B626813F0C3F902B0BDE8104040
:10211000FFF75EBE08480324084A012100940A4BD9
:1021200082F844100021426813F0B2F902B0BDE811
:102130001040FFF74DBE00BF3406002434E30624F0
:102140007C780108747801088878010810B582B09D
:10215000042835D8DFE800F01322282E03001948A0
:102160000624194A0421194B009411700021426879
:1021700013F08EF902B0BDE81040FFF729BE002130
:1021800010480424104A124B00941170426813F056
:102190007FF902B0BDE81040FFF71ABE09480824D5
:1021A000094A01210B4BDFE706480324064A0221B6
:1021B000094BD9E703480424034A0321074BD3E71B
:1021C00002B010BD4C060024D0060024747801082B
:1021D0008C7801087C7801088878010894780108D7
:1021E00084B0F0B585B004464FF47A760BAD85E83F
:1021F0000E009DF8403029460025037102F0EAFDEB
:10220000AE2303AA00968DF80D30204621790223D3
:102210008DF80C5002F074FED52303AA00962046D8
:1022200021798DF80D3002238DF80C5002F068FEF4
:10223000802303AA0096204621798DF80D300223D1
:102240008DF80C5002F05CFEA82303AA00962046ED
:1022500021798DF80D3002238DF80C5002F050FEDC
:102260001F2303AA0096204621798DF80D30022302
:102270008DF80C5002F044FEDA2303AA00962046A3
:102280008DF80D30022321791F468DF80C5002F095
:1022900037FE03AA3B460096204621798DF80C5064
:1022A0008DF80D7002F02CFED32303AA0096204671
:1022B00021798DF80D303B468DF80C5002F020FE50
:1022C0003B4603AA0096204621798DF80C508DF8E4
:1022D0000D5002F015FE402303AA009620462179F6
:1022E0008DF80D303B468DF80C5002F009FEA62308
:1022F00003AA0096204621798DF80D303B468DF8D3
:102300000C5002F0FDFDA42303AA0096204621797B
:102310008DF80D303B468DF80C5002F0F1FD8D2309
:1023200003AA0096204621798DF80D303B468DF8A2
:102330000C5002F0E5FD142303AA009620462179F3
:102340008DF80D303B468DF80C5002F0D9FDA123DD
:1023500003AA0096204621798DF80D303B468DF872
:102360000C5002F0CDFDC82303AA00962046217927
:102370008DF80D303B468DF80C5002F0C1FD8123E5
:1023800003AA0096204621798DF80D303B468DF842
:102390000C5002F0B5FD8F2303AA00962046217948
:1023A0008DF80D303B468DF80C5002F0A9FDD92375
:1023B00003AA0096204621798DF80D303B468DF812
:1023C0000C5002F09DFD252303AA0096204621799A
:1023D0008DF80D303B468DF80C5002F091FDDB235B
:1023E00003AA0096204621798DF80D303B468DF8E2
:1023F0000C5002F085FD342303AA00962046217973
:102400008DF80D303B468DF80C5002F079FD0096AA
:102410003B46217903AA2046AF248DF80C508DF855
:102420000D4002F06DFD05B0BDE8F04004B070470E
:102430002DE9F04100F51044C8B0054694F8AC30E1
:102440001942037918D0032B1CD00022027194F892
:10245000B0300B40C36094F8AD300B401B09092B22
:10246000037206D80120072B287184F8A43000F0ED
:10247000E88048B0BDE8F081032BFAD8DFE803F02C
:102480008D115802F72900F0C38095F9922095F834
:102490009230002AEDDBEA180133917485F892300E
:1024A000E7E794F8AE8001EA080885F8108094F810
:1024B000A4703B1F012B06D995F8933003F0FD0360
:1024C000012B40F0BB8000236E46902205F10801ED
:1024D00030462B7114F008F9D4F89830D4F89C20C9
:1024E000013B9B1ADBB2002BF6D0902231460DEB5C
:1024F000020014F0F9F8D4F89C6024A9902206EBAD
:10250000C600013605EB0010F6B2983014F0ECF876
:10251000C4F89C60B8F1770FABD9032FA9D1092378
:10252000A8F178012B7284F8A43085F89510A0E703
:1025300094F8AE301940697494F8A430012B02D19C
:10254000002900F08C806E46902205F1080130468B
:1025500014F0CAF8D4F89830D4F89C20013B9B1AA8
:10256000DBB2002BF6D0902231460DEB020014F0C6
:10257000BBF8D4F89C6024A9902206EBC600013673
:1025800005EB0010F6B2983014F0AEF80023C4F852
:102590009C602B7148B0BDE8F08194F8A4302B7298
:1025A000043B94F8AE20012B01EA0201297405D9FD
:1025B00095F8933003F0FD03012B3CD100236E46C8
:1025C000902205F1080130462B7114F08DF8D4F8F3
:1025D0009830D4F89C20013B9B1ADBB2002BF6D03C
:1025E000902231460DEB020014F07EF8D4F89C6086
:1025F00024A9902206EBC600013605EB0010F6B2C6
:10260000983014F071F8C4F89C6048B0BDE8F081CF
:1026100000236E46902205F1080130462B7114F01C
:1026200063F8D4F89830D4F89C20013B9B1ADBB2B5
:10263000002BF6D0D4E702232B711AE702232B716B
:1026400068E711F00800EA6036D101F0070385F869
:1026500093303BB9032285F892302A7109E70023B1
:102660002B7270E74B077FF504AF6E4628719022FE
:1026700005F10801304614F037F8D4F89830D4F852
:102680009C20013B9B1ADBB2002BF6D090223146F6
:102690000DEB020014F028F8D4F89C6024A99022D5
:1026A00006EBC60005EB0010983014F01DF8731C03
:1026B000DBB2C4F89C30DCE608236E462B72304651
:1026C00084F8A43094F8B2302A719022194085F829
:1026D000941005F1080114F007F8D4F89830D4F8F4
:1026E0009C20013B9B1ADBB2002BF6D0CEE700BF4B
:1026F0002DE9F04FC0484FF07C58C04F0025DFF85F
:102700005893BF4EDFF854B306F51044DFF850A3DA
:102710002DED028BB1B0F7EE008A00F03BFB0021FB
:10272000B54800F0C5FB0421B34800F03DFBB248BA
:1027300000F036FBB0EE408A0121384611F022FC51
:102740000023C8EE887A9FEDAF0A4846C9F8048096
:10275000C9F8143089ED038A89ED020AC9ED047ABB
:1027600012F0D4FD40F20113294604F1A80084F8C8
:10277000A55089ED060AA9F8243089F8005001F027
:102780002FFDA14B3846A14AB0EE680AC3ED008A7E
:102790000A230121C4F89C50C4F89850C2ED008A65
:1027A0003372357111F05EFC3846B5EE000A022135
:1027B00011F058FC944B0421384693ED000A11F0B7
:1027C00051FCB0EE480A9248C7F8008012F00EFAA9
:1027D000904A4FF00203904F484682F844309FEDF4
:1027E0008F0A8F4B5762136289F8005089ED020AF5
:1027F00012F08CFD8B4889ED060AB0EE480AC9F844
:10280000047011F0C5FF874AB0EE480A864B874F27
:102810009360874B3846DFF84C82536011F088FD97
:102820001023844A11958DF848303C230F92824A38
:102830008DF84C3011AB3A60804A0E957A6006F103
:102840009807109593E807008DE807000EAA7C48CA
:102850000ECAFFF7C5FC7B49674800F09DFA4FF0B0
:1028600002038DF819500EA88DF81830069901F062
:1028700037FD03238DF81C500DF149008DF81D30F4
:10288000079901F02DFD4FF001020DF15A008DF86E
:1028900020208DF82120089901F022FD07238DF8D2
:1028A00024500DF16B008DF82530099901F018FDC9
:1028B00006238DF828501FA88DF829300A9901F0B9
:1028C0000FFD4FF001024FF002030DF18D008DF866
:1028D0002D208DF82C300B9901F002FD4FF00203F2
:1028E0000DF19E008DF830304FF004038DF831303B
:1028F0000C9901F0F5FC05238DF834500DF1AF0073
:102900008DF835300D9901F0EBFC4F4804230EA9EA
:10291000082201F0F3FC4C4801F0D4FE03F042FA27
:10292000054607E0C4F8A05001F090FC0146344889
:10293000FFF77EFD454801F07FFC03464348002B2E
:10294000F0D1424801F096FC002800F05181D4F803
:102950009C30D4F898209B1ADBB2002B00F08480C6
:10296000D4F89C30D4F898209B1ADBB2002BF7D017
:10297000D4F8982002EBC20301321B01D2B2F95CF9
:102980003344C4F8982093F8A02093F8A13081B381
:102990000129DCD1002BDAD007EE902ADFED2C6A7A
:1029A000B2EE087A9FED2B8AF8EE677A88F800106D
:1029B000B0EE000A77EEE67AC7EE870ACDED050A9B
:1029C00012F0A2FF20EE080A234889ED020A12F055
:1029D0009DFCF0EE407ADDED050AB0EE000AC9ED8F
:1029E000067A12F091FF20EE080A0A4B83ED080ADE
:1029F000ADE788F80010AAE764060024A0060024CA
:102A0000F80600240000C842ACE50624A4E506242C
:102A100034A3062434E306246666A63E0000A543DC
:102A20000000DC43F0A2062400005C44AC970024C4
:102A30003333333F010801096666663F00204B4689
:102A400090E306248D0A00087C060024A097002449
:102A500000008A420000DC43D0060024B4E50624CE
:102A6000B8E50624A8E506240121654801F040FEEA
:102A70009FED647ADFED648A0221F0EE477A634BC2
:102A8000DFED636A5E48E0EE267ADFED626AC7FE3C
:102A9000877AC7FEE67AC3ED027A01F029FEF0EEEE
:102AA000687A5D4D9FED5D7A03215548E0EE077A27
:102AB0009FED5B8AB0EE007AC7FEA87AC7FEC77AA0
:102AC000C5ED007A01F014FEF0EE687A554B9FEDEB
:102AD000567A01215548E0EE077A95ED000A1D4629
:102AE000B0EE087AC7FEA87AC7FEC77AC3ED007AAF
:102AF00011F0B8FA95ED000A04214C4811F0B2FA31
:102B000000213F4801F0F4FDB7EE007A70EE087A3C
:102B1000474BC7FE887AC7FEC77A37EEC77AC3ED40
:102B2000007A444B04213648F1EE477AC3ED007A2F
:102B300001F0DEFDF0EE487A9FED3F7ADBF80030E1
:102B40003E4AE0EE077AC7FE887AC7FEC77AFDEEF6
:102B5000E77A17EE900AC2ED007A984203D0CBEDE7
:102B6000007AFFF7ABFA2648052101F0C1FDDFED41
:102B70002C6A9FED337AF0EE667ADAF80030314A4B
:102B8000E0EE077AC7FEA67AC7FEC77AFDEEE77ABF
:102B900017EE900AC2ED007A984203D0CAED007A8F
:102BA000FFF7D4FAF7EE008A9FED1D8A062114483C
:102BB00001F09EFD70EE087AC7FE887AC7FEE87ABB
:102BC00037EEE87A204B07210D48C3ED007AF1EE8D
:102BD000477A1E4BC3ED007A01F08AFD1C4B70EE64
:102BE000087AC7FE887AC7FEE87AC3ED007A95E6D0
:102BF0003071184801F042FB164801F019FBA6E6B7
:102C00007C06002400004842CDCCCC3DF0A2062436
:102C100000C0F3440000FA44A4E506243333F33F34
:102C200000000000ACE506249A993940A006002473
:102C3000C0E5062498E50624333313409CE50624BA
:102C400066668E40A0E50624B0E50624BCE50624B1
:102C500004000024A09700243348344A3449F8B5CE
:102C6000002500F51043334C0560334E334FC3E964
:102C70002A524FF60F02A3F8B020072283F8B220A1
:102C8000224612F04FFB2E4822462E490560456130
:102C9000056212F047FB2C4800232C4A2C490360A4
:102CA0004360C360C36103624362858582600261E1
:102CB00042618261224612F035FB224625492648B0
:102CC00012F030FB22462549254812F02BFB224604
:102CD0002449254812F026FB22462449244812F0B4
:102CE00021FB244B2448224624490360856012F0CE
:102CF00019FB234D23493046FDF756FF224639463E
:102D0000304612F00FFB20492846FDF74DFF2246C2
:102D10003946284612F006FB1C4930681C4B2A68CD
:102D200008601A60F8BD00BFF806002480707FF0CC
:102D3000890A000800000024340600248354010896
:102D400064060024690A0008A0060024000080BF71
:102D5000550A0008590A0008D0060024610A000834
:102D6000F0A20624650A000834A306245D0A0008C0
:102D7000AC970024B878010888E306247D0A00088F
:102D80004C0600249C780108A478010880E30624FE
:102D900084E30624704700BF143001F0A9B900BFD6
:102DA000143001F0A1B900BF38B500F11405044694
:102DB0002DED028B284601F089F9284601F094F99F
:102DC0002846B0EE408A01F07DF9D0ED007AF8EEA9
:102DD000677A88EE277ABDEC028B84ED0E7A38BDD7
:102DE000F0B5032399B000270125129306462C4B1A
:102DF00009A81595CDE90E7340F20453ADF84030A3
:102E0000284BCDE91357099301F07AFD09A801F089
:102E100053FE002836D1244B04AF04460090CDF871
:102E200042301023394604958DF820301F4BCDE9F0
:102E30001650CDE906506846059301F0CBFF0823F4
:102E4000009A01A909A8ADF804508DF8064009942C
:102E50000295039300F0E4F800230EA938463024CD
:102E6000049302F081FD03224FF07E5309A906F17D
:102E700014000B930C93CDE90942049A01F0EAF88F
:102E800019B0F0BD40F60132074B169704AFADF80C
:102E900024200998CDF84230179500F081F8DBE73F
:102EA0000402040403030001040604030704010BE5
:102EB0002DE9F04304462DED028B83B0002948D064
:102EC000012140F2011200230091ADF804208DF899
:102ED0000630304A0126304B271D304904F12908BD
:102EE000626040F20272A36040F60663E16004F1A2
:102EF00025092682A4F8252084F82760A4F8293023
:102F000084F82B6003F0BEF86946054648B304F127
:102F100030008DF8066003F013F8072D34D104F16A
:102F200014052046FFF75CFF284601F0DDF828462F
:102F3000B0EE408A01F0C6F8D0ED007AF8EE677A7C
:102F400088EE277A84ED0E7A03B0BDEC028BBDE8E3
:102F5000F08340F2011300918DF80610ADF80430B3
:102F6000B7E704F1300002F0EBFF3946204602F0EB
:102F70007BF9484601F0C4FC404601F0C1FC04F175
:102F8000120000F077F9CAE73946204602F06CF9E2
:102F9000C5E700BF0508050905070506050A060679
:102FA00010B584B003460124ADF8040003A8ADF8C1
:102FB0000C30ADF80E4001F0A3FC214603A801F04F
:102FC00089FD204602F0F0FE002103A801F082FDF9
:102FD000204602F0E9FE214603A801F07BFD04B083
:102FE00010BD00BF10B5C2F3002384B00C46017CB5
:102FF0008DF80D2043EA4402FA2402238DF80C20B8
:1030000003AA009401F07CFF18B10124204604B00B
:1030100010BD04460A2002F0C7FE204604B010BDD1
:10302000034670B543F8042B044684B007C983E80F
:103030000700A37983B91A210B461E22FA252374AF
:103040002046ADF80C20022303AA009501F058FF9A
:1030500028B1012004B070BD1B210B46EDE70A200A
:1030600002F0A2FE4FF4B85200950223ADF80C20F6
:10307000204603AA217C01F043FF0028E9D10A2061
:1030800002F092FE41F2027200950223ADF80C208C
:10309000204603AA217C01F033FF0028D9D10A2061
:1030A00002F082FE042200950223ADF80C20204697
:1030B00003AA217C01F024FF0028CAD10A2002F0D3
:1030C00073FE062200950223ADF80C20204603AAC9
:1030D000217C01F015FF0028BBD10A2002F064FE1C
:1030E00041F2082200950223ADF80C20204603AAE5
:1030F000217C01F005FF0028ABD10A20064602F032
:1031000053FE0095022303AA217C2046ADF80C60F3
:1031100001F0F6FE00289CD1304602F045FE0095F5
:1031200022790C232046002A8DF80C3003AA4FF098
:10313000020314BF622142218DF80D10217C01F0A1
:10314000DFFE002885D1304602F02EFE2279D4E938
:1031500002310B43DBB20AB943F0400362790AB192
:1031600043F020030E22FA258DF80D3020460095FD
:1031700002238DF80C2003AA217C01F0C1FE002857
:103180007FF467AF0A2002F00FFE102200950223A1
:10319000ADF80C20204603AA217C01F0B1FE0028E6
:1031A0007FF457AF0A2002F0FFFD122100950223A1
:1031B000ADF80C1003AA217C204601F0A1FE0028E6
:1031C0007FF447AF0A2002F0EFFD012209212046DB
:1031D000FFF708FF003818BF01203BE7F0B51023C8
:1031E00087B0234C012200250126002702A9204692
:1031F0000195CDE902234FF48052CDE9046709F02F
:103200006DFF642003F018FB02A94FF480522046A2
:10321000CDE9046702261027CDE9026709F05EFFB9
:103220000322102302A92046CDE902230023042211
:10323000CDE904234FF4805209F050FF40F23223CD
:10324000042202A9019310232046CDE90223019A0A
:10325000012305924FF48052049309F03FFF40F69A
:103260000601204609F05AFF284607B0F0BD00BF0E
:10327000CCE506241C4B00221C494FF0400C30B515
:10328000054689B00220596007219A601A6201241C
:10329000DA620A224FF4006EDC6006922022CDE949
:1032A000000104200821CDE9020103201021CDE90D
:1032B000040108206946C3E904024FF4C072181DD6
:1032C000C3E906C24FF48052C3E909E209F0DCFE0B
:1032D00038B92846FFF782FF003818BF012009B02F
:1032E00030BD204609B030BDC8E50624404100523B
:1032F000614A0021D0B513688EB00A91002B40F0CE
:10330000B9805E4B01214FF683700C2411600221BD
:10331000D3F8D4200026032742F48052C3F8D420E7
:10332000D3F8D42002F480520092009AD3F8E0201F
:1033300042F01002C3F8E020D3F8E02002F01002BF
:103340000192019AD3F8E02042F04002C3F8E02055
:10335000D3F8E02002F040020292029AD3F8E02073
:1033600042F00802C3F8E020D3F8E02002F008029F
:103370000392039AD3F8E02042F48072C3F8E0206D
:10338000D3F8E02002F480720492049AD3F8E0208B
:1033900042F08002C3F8E020D3F8E02002F080027F
:1033A0000592059AD3F8E02042F02002C3F8E0200D
:1033B000D3F8E02002F020020692069AD3F8E0202B
:1033C00042F00402C3F8E020D3F8E0300C9403F09C
:1033D000040307930323079A0B93CDE9080108A977
:1033E000274805F0AFF848F23712022308A925480C
:1033F0000C94CDE90823CDE90A6705F0A3F84CF257
:103400000372022308A920480C94CDE90823CDE9D2
:103410000A6705F097F840F2FF62022308A91B48EB
:103420000C94CDE90823CDE90A6705F08BF84FF637
:103430000C72022308A916480C94CDE90823CDE9A3
:103440000A6705F07FF84FF63F02022308A91148EA
:103450000C94CDE90823CDE90A6705F073F8202222
:10346000022308A90A480C94CDE90A67CDE908238C
:1034700005F068F80EB0D0BDC4E50624004402583B
:103480000010025800180258000C02580020025880
:10349000001C0258001402582DE9F04FDFF8108488
:1034A00006460D46144608F118002DED028B89B032
:1034B00000AF02F051FBD8F8183073B3D8F81C30C5
:1034C000D8F80490002B43690BBF4FF0080A4FF067
:1034D000100A4FF0020B4FF0040BB9F1000F2AD085
:1034E000A200EA46012B02F1070222F00702ADEB2F
:1034F000020D6846ADEB020D694600F03F81022BDC
:1035000000F0D680002B6FD02246C847D54624371E
:10351000BD46BDEC028BBDE8F08FD8F81C30002B07
:10352000F5D0D8F804904FF0080A4FF0020B436929
:10353000B9F1000FD4D1FB61D8F80030BB61002B8A
:10354000E5D0D54802F07AFB6B46BBF1020F7861FB
:1035500008EE103AFB6900F083816A465146A2EBFF
:10356000C40295466200EA46B2FBFBF2AAEBC40035
:1035700085460AEB8200EE46F861ADEB010DF86975
:103580000EEB820CC7F810C0EC46ADEB010D00EB62
:103590008201CCF80400CCF8081001EB82013869F4
:1035A000E946CCF80C1000EB8201CCF800A001EB4E
:1035B0008202C9E900E0C9E90212012B00F064832C
:1035C000022B00F06C82002B00F0808162084946DB
:1035D0006046BB69984718EE103A24379D46BD46B1
:1035E000BDEC028BBDE8F08F002C8DD01A46D8EDD3
:1035F0000C6A9FEDB27A8446331D36F922E00CF155
:10360000080C07EE90EA33F922E00232F8EEE77A8E
:10361000944267EE877A67EEA67A4CED027A07EE5F
:1036200090EAF8EEE77A67EE877A67EEA67A4CEDD5
:10363000017AE2D8F9612246C847984ED8ED0D6A62
:103640000020F9692B1D9FED9E7A9FED9E6ADFEDAC
:103650009E5A22E0F4EEC67AF1EE10FAC0F2C88467
:1036600047F6FE72D1ED017A45F8202066EEA77A82
:10367000F4EEC77AF1EE10FA40F2F080F4EEC67A7A
:10368000F1EE10FAC0F2D58447F6FE7243F820201E
:103690000230083184427FF639AFD1ED007A66EE10
:1036A000A77AF4EEC77AF1EE10FAD3D83246D9E70A
:1036B000002C3FF429AFD8ED0C6A84469FED787A50
:1036C0000022331D8E4656F822100CF1080C07EE2E
:1036D000901A53F822100232F8EEE77A944267EE1D
:1036E000877A67EEA67A4CED027A07EE901AF8EE2A
:1036F000E77A67EE877A67EEA67A4CED017AE2D830
:1037000071462246C7F81CE0C847664ED8ED0D6AE0
:103710000020F9692B1D9FED6A7A9FED6A6ADFF838
:1037200094C120E0F4EEC67AF1EE10FAC0F279848A
:103730003246D1ED017A45F8202066EEA77AF4EE04
:10374000C77AF1EE10FA40F28780F4EEC67AF1EE15
:1037500010FAC0F25E84324643F82020023008316D
:1037600084427FF6D3AED1ED007A66EEA77AF4EE0E
:10377000C77AF1EE10FAD5D86246DAE7002C3FF4AA
:10378000C3AED8ED0C6A86469FED477A4FF0000C29
:10379000331D56F82C200EF1080E82F40002A2F51B
:1037A000000207EE902A53F82C200CF1020CF8EEE0
:1037B000E77A82F400026445A2F5000267EE877A98
:1037C00067EEA67A4EED027A07EE902AF8EEE77AD7
:1037D00067EE877A67EEA67A4EED017AD9D8F9615D
:1037E0002246C847314ED8ED0D6A0020F9692B1DDD
:1037F0009FED337A9FED336ADFF8BCC01FE0F4EE33
:10380000C67AF1EE10FAC0F2FC833246D1ED017AAD
:1038100045F8202066EEA77AF4EEC77AF1EE10FAAA
:1038200018D9F4EEC67AF1EE10FAC0F2DA83324615
:1038300043F820200230083184427FF667AED1ED94
:10384000007A66EEA77AF4EEC77AF1EE10FAD6D8CF
:103850006246DBE76246EBE762467DE7324615E704
:10386000A100D6466208073121F00701ADEB010D3A
:10387000EA46ADEB010D6946ADEB0E0D0AEB820099
:10388000EC46ADEB0E0D01EB8202F861E946CCE9A6
:1038900000A0C9E9001290E61CE606240280FFFFA2
:1038A000000000300082FF7F0000003482FF7F00B4
:1038B00000E60624007E00807E0080FF00000038C5
:1038C00004FF7FBF04FF7F3F00FEFF46002C00F097
:1038D000C982BBF1020FD8F8242000F0FA8279697E
:1038E000C7F8049002EB810E5FED0C5A8A00DCF8F9
:1038F00008100EF104007A611A46DCF80C303B61C6
:10390000331DD7F810903D61FD69C7E902CB8C46A5
:10391000834636F92210D8ED0C7A06EE101A33F9E8
:10392000221006EE901A3EF92210B8EEC66A07EE93
:10393000101AF8EEE66A3BF92210B8EEC77A26EEC6
:10394000256A66EEA56A27EE257A26EE276A66EED8
:10395000A76A27EE277A07EE901A51080232F8EE8E
:10396000E77A0AEB8100944280ED006A05EB810062
:1039700067EEA57AC0ED006A0CEB810009EB8101CE
:1039800080ED007A98ED0C7A67EE877AC1ED007AC7
:10399000BFD8D7F804903D69D7E902CB60466208EA
:1039A000BB6949469847D8F82C307A69D8ED0D6A3A
:1039B0001A441FED3D7A1FED3D6A2B1D904602F122
:1039C000040A5FED3F5A0022A84ED9E900EC51E00D
:1039D000F4EEC67AF1EE10FAC0F2C78247F6FE7036
:1039E00045F822000CEB0100D0ED007A66EEA77AD4
:1039F000F4EEC77AF1EE10FA4BD9F4EEC67AF1EE96
:103A000010FAC0F2BA8247F6FE70BBF1020F43F81B
:103A100022002BD0D9F808000844D0ED007A66EED9
:103A2000A77AF4EEC77AF1EE10FA36D9F4EEC67A38
:103A3000F1EE10FAC0F2CD8247F6FE7048F822008F
:103A4000D9F80C000144D1ED007A66EEA77AF4EEC5
:103A5000C77AF1EE10FA1ED9F4EEC67AF1EE10FA3A
:103A6000C0F2AF8247F6FE714AF822100232944249
:103A70007FF6B1AD51080EEB81008900D0ED007AE0
:103A800066EEA77AF4EEC77AF1EE10FAA0D83046C7
:103A9000A6E73046B9E73146E6E73046CEE7002CE8
:103AA00000F0E081BBF1020FD8F8243000F0E18192
:103AB0007A69DCF8081003EB820EC7F804909300D3
:103AC000DFED6B5A0EF1040000227B61DCF80C3054
:103AD0003B61331DD7F810903D61FD69C7E902CB0A
:103AE0008C46834656F82210D8ED0C7A07EE101A51
:103AF00053F82210B8EEC76A07EE101A5EF82210CB
:103B0000F8EEC76A07EE101A26EE256A5BF8221057
:103B1000B8EEC77A66EEA56A26EE276A27EE257A02
:103B200066EEA76A27EE277A07EE901A510802324E
:103B3000F8EEE77A0AEB8100944280ED006A05EB2B
:103B4000810067EEA57AC0ED006A0CEB810009EBFD
:103B5000810180ED007A98ED0C7A67EE877AC1EDED
:103B6000007ABFD8D7F804903D69D7E902CB604608
:103B70006208BB6949469847D8F82C307A69D8ED75
:103B80000D6A1A449FED3E7A9FED3E6A131D9246E0
:103B9000DFF8E4C00022FB612B1D364ED9E9008E10
:103BA0004EE0F4EEC67AF1EE10FAC0F2FC81304637
:103BB00045F822000EEB0100D0ED007A66EEA77A00
:103BC000F4EEC77AF1EE10FA49D9F4EEC67AF1EEC6
:103BD00010FAC0F2EF813046BBF1020F43F8220029
:103BE0002AD0D9F808000844D0ED007A66EEA77A0A
:103BF000F4EEC77AF1EE10FA35D9F4EEC67AF1EEAA
:103C000010FAC0F2C98130464AF82200D9F80C00F7
:103C10000144D1ED007A66EEA77AF4EEC77AF1EEB0
:103C200010FA1ED9F4EEC67AF1EE10FAC0F2AD81A8
:103C30003146F86940F82210023294427FF6CBAC4C
:103C4000510808EB81008900D0ED007A66EEA77A72
:103C5000F4EEC77AF1EE10FAA3D86046A8E7604602
:103C6000BAE76146E5E76046CEE700BF0280FFFFA6
:103C7000000000300082FF7F007E008000000034E2
:103C800004FF7FBF04FF7F3F002C00F0EB807A69C8
:103C90000021D8F82430C7F8109003EB820ED7F833
:103CA0001C909300FD610EF104021FED0C6A7B6114
:103CB000331D154656F821204808D8ED0C6ABBF193
:103CC000020F82F40002A2F5000207EE902A53F8D8
:103CD000212082F40002B8EEE77AA2F5000227EE76
:103CE000067A07EE902A0AEB8002F8EEE77A27EED2
:103CF000267A67EE867A82ED007A09EB80024FEA37
:103D0000800067EEA67AC2ED007A27D05EF8212007
:103D100082F40002A2F5000207EE902A55F8212055
:103D200082F40002B8EEE77AA2F5000227EE067AE6
:103D300007EE902ADCF80820F8EEE77A024427EE36
:103D4000267A67EE867A82ED007A98ED0C7ADCF8B6
:103D50000C2067EE877A0244C2ED007A02318C4271
:103D6000A8D8D7F8109060466208BB694946FD693B
:103D70009847D8F82C307A69D8ED0D6A1A441FEDAF
:103D8000407A1FED406A131D9246DFF8C4C200223C
:103D9000FB612B1DAB4ED9E9008E4EE0F4EEC67AE6
:103DA000F1EE10FAC0F2C580304645F822000EEB65
:103DB0000100D0ED007A66EEA77AF4EEC77AF1EE54
:103DC00010FA49D9F4EEC67AF1EE10FAC0F2BF80CB
:103DD0003046BBF1020F43F822002AD0D9F8080080
:103DE0000844D0ED007A66EEA77AF4EEC77AF1EED9
:103DF00010FA35D9F4EEC67AF1EE10FAC0F2AE80C0
:103E000030464AF82200D9F80C000144D1ED007A7E
:103E100066EEA77AF4EEC77AF1EE10FA1ED9F4EE48
:103E2000C67AF1EE10FAC0F28B803146F86940F89C
:103E30002210023294427FF6CEAB510808EB81008B
:103E40008900D0ED007A66EEA77AF4EEC77AF1EE3B
:103E500010FAA3D86046A8E76046BAE76146E5E7EE
:103E60006046CEE7224649466046BB699847FFF761
:103E7000B2BBC7F810B0002298ED0C6A331DDFED1D
:103E8000726AD7F81CB0786956F8221007EE901ABB
:103E900053F82210B8EEE77A07EE901A5108023272
:103EA000F8EEE77A27EE267A0AEB810E94420BEBC6
:103EB000810167EEA67A27EE067A67EE867A8EEDA6
:103EC000007AC1ED007ADFD88300D7F810B07B61AB
:103ED0004DE61A46C7F810B098ED0C6A331DDFEDB9
:103EE0005B6AD7F81CB0786936F9221007EE101A11
:103EF00033F9221007EE901AB8EEC77A5108023251
:103F0000F8EEE77A27EE267A0AEB810E94420BEB65
:103F1000810167EEA67A27EE067A67EE867A8EED45
:103F2000007AC1ED007ADFD88300D7F810B07B614A
:103F300034E5F0EE675AFEEEE45A15EE900A34E7E7
:103F4000F0EE675AFEEEE45A15EE901A6EE7F0EEC8
:103F5000675AFEEEE45A15EE900A3AE7F0EE675A19
:103F6000FEEEE45A15EE900A4BE767EEA57AFDEEF9
:103F7000E77A17EE900A00B232E567EEA57AFDEE19
:103F8000E77A17EE900A00B23FE5F0EE675AFEEED0
:103F9000E05A15EE901A4CE6F0EE675AFEEEE05A43
:103FA00015EE900A30E6F0EE675AFEEEE05A15EE96
:103FB000900AFDE5F0EE675AFEEEE05A15EE900A23
:103FC0000AE667EEA57AFDEEE77A17EE901A09B2D7
:103FD0004AE567EEA57AFDEEE77A17EE900A00B2A1
:103FE0002CE5F0EE675AFEEEE45A15EE902A1FE437
:103FF00067EEA57AFDEEE77A17EE902A12B2FFF788
:1040000031BBF0EE675AFEEEE45A15EE902AFFF748
:10401000FDBBF0EE675AFEEEE05A15EE902AFFF770
:104020009BBBF0EE675AFEEEE05A15EE902AFFF7C2
:1040300080BB67EEA57AFDEEE77A17EE902A12B202
:10404000FFF724BB82FF7F00000000300000003833
:104050007E0080FF30B5184C154685B0046004F131
:10406000080EEC460FC98EE80F00D4ED047AF5EE89
:10407000C07A8CE80F00F1EE10FA1ADDB7EE006A94
:1040800094ED057A27EE277AC6EE276A84ED0D7A3D
:10409000C4ED0C6A6DB1204640F8185F01F05CFD7C
:1040A000064903690020064A2162A262E36005B066
:1040B00030BD012005B030BD00E6062400200030F0
:1040C0000000003000680830704700BFB1F5807F05
:1040D00003680A4628BF4FF48072B1F5807F9A606A
:1040E00094BF0020012070470068183001F094BD93
:1040F00030B5046883B008480D46A368A26A216AF7
:104100009B00009004F1180001F028FD0020C4E994
:10411000000503B030BD00BF9934000810B4074B50
:104120004FF07E5130240022032019619C60D8603A
:104130005DF8044B5961C3E90622704700E6062486
:10414000704700BF254A937803B970470B68002B6E
:10415000FBD04FF0000C70B56546A3EB0C04032CAC
:1041600034D910F80C60844416F00E0F06F00F04DA
:104170002CD00F2C2AD0144494F8104834B3013CAE
:104180000CF1010E5EFA84FED2F80434D2F8084431
:10419000013B1B1BC3F30903F3B11CF8016FD2F8F9
:1041A0000434D2F80844013B1B1BC3F30903002B62
:1041B000F5D0D2F80834F44503F101041344C4F3F4
:1041C00009041E71C2F80844DED10B680435ADB293
:1041D0009D42AC46C1D370BD9370F6E738E6062425
:1041E0004FF0010CCAB20F4BA2EB0C02B2FA82F2F2
:1041F00010B552090C4C82B0046020466170114623
:1042000083F800C001920AF011FD00230A20A37078
:1042100001F0CAFD019A2046044902B0BDE81040F1
:104220000AF08ABD6409072438E6062445410008DF
:10423000012203689A7070470368D3F80804D3F822
:104240000434C01AC0F30900704700BF0268D2F8F6
:104250000834D2F804145B1AC3F30903002BF6D018
:10426000D2F80434D1180133C3F309030879C2F832
:104270000434704703689878704700BF0368D3F828
:104280000424C3F80824704710B5104B104C03F1F8
:10429000100E04F5016C0FCB8CE80F009EE80F00A8
:1042A00004F5026C8CE80F000A484FF60F01072353
:1042B000094AC4F830082046A4F8341884F836387F
:1042C0000649BDE8104011F02DB800BFF477010891
:1042D00038E6062480707FF0000000244141000889
:1042E00082B04FF0000C0323ADF80410BDF8042099
:1042F00080F810C00280438002B070472DE9F04F73
:10430000BE4E00258FB0BE4C037006F140034260E4
:10431000074601928846202229463046C4F8583183
:10432000C4F85461CDE90355CDE90555CDE90755EC
:10433000CDE90955CDE90B5512F0FEF920222946A9
:1043400004F59970C4F82151C4F82551C4F82951D5
:10435000C4F82D5112F0F0F9019B84F8385284F81A
:1043600020317A68002A5FD02B464146B64604F5D4
:10437000907599464FF0010A03EB0310D1F800B095
:10438000D1F804800133D1F808C02218CE6844F86F
:1043900000B0C2F80480C2F808C0D660087C2EF8CD
:1043A000029B10740A7C05F8012F002A69D07A68F4
:1043B000113184F838A29A42DED84FF48022914815
:1043C0009DF8043008214FF000084FF00009C4F8B0
:1043D00074310023C4E957020122C4F8643184F81F
:1043E0007031C4E95A2194F83812C4E9608981B364
:1043F000C4F88821002284F8713184F878313B7840
:10440000C4E96322A3B3012200200121013B84F807
:104410009421C4E96801082B2CD8DFE803F0ABB085
:10442000B5BABFC4C9CFD6009DF804300121C4F885
:104430006421C4F874314FF4802384F87021714AE8
:10444000C4E9572308230022C4E95A130023C4E90E
:1044500060230123002284F87131002384F878312D
:104460000323C4F888313B78C4E96322002BCAD106
:1044700084F89431644802F017FE034638B1FFBE59
:10448000FEE77A6811319A423FF676AF95E703A9C5
:104490005D48039302F066FF0546002868D10222BA
:1044A00040F2FF73CDE9082300230422CDE90A235B
:1044B00094F82031002B00F0D5804FF0060921E060
:1044C000022B00F08980012B40F0C4809AF8013063
:1044D000012B00F0C180002B4C4B18BF002306A914
:1044E0004948CDE9063902F00BFA002840F0BF80B8
:1044F000013594F82031EDB2AB4240F2B380444B29
:1045000053F825902FB207EB071704EB070A504624
:1045100000F0F6F905EB051323441B7C042B7DDC2E
:10452000022B00F3918000F08D806319002283F844
:104530001021E35D002BC3D19AF80130062B00F067
:104540008580072B00F08A80022B00F09680032BD9
:1045500000F09580002B00F09680012B00F09180F8
:10456000042B00F09280052B2A4B18BF0023B6E7DE
:10457000FFBEFEE703224023C4E966237AE7072251
:104580006023C4E9662375E70F228023C4E966230C
:1045900070E71F22A023C4E966236BE73F22C023F4
:1045A000C4E9662366E77F22E023C4E9662361E766
:1045B000FF224FF48073C4E966235BE740F2FF12E9
:1045C0004FF49073C4E9662354E740F2FF324FF48E
:1045D000A073C4E966234DE79AF80130042B37D065
:1045E000052B3DD0002B40D0012B42D0022B42D0D6
:1045F000032B094B18BF002371E700BF00400030B8
:1046000070EE062400200240CCEF06240002B02504
:10461000EC7801080000B84F0020903603233E1DBF
:1046200004EB05084FF0000B264488F810313046A3
:104630000BF1010B00F064F998F8103104365B457A
:10464000F5DC76E70123EAE70223E8E7104B46E7CB
:10465000104B44E7002342E70F4B40E70F4B3EE788
:104660000F4B3CE70FB0BDE8F08F0E4B37E7FFBEB6
:10467000FEE70D4B33E70D4B31E70D4B2FE70D4BAD
:104680002DE70D4B2BE70D4B29E70D4B27E700BF1F
:104690000800900C1000C0102000F0148000501D85
:1046A000000180210004002A0008302E0010603232
:1046B0000040C03A0080F03E000052470000214315
:1046C0000000844B38B5094C40F2FF724FF00111E5
:1046D00004F5AE75284602F0F3FD94F82021D4F8D5
:1046E00054112846BDE8384002F05EBB70EE062447
:1046F000064B0F29D3F8543198BF03EB41031B88B5
:1047000000EE103ABBEEC80A704700BF70EE0624F8
:10471000214B02689A4200D07047204A002320486B
:10472000D2F8D81030B51F4C41F0200183B0C4F846
:10473000C001092004F5E075C4E971034FF48060FD
:10474000C2F8D810D2F8D8204FF40061C4E9733011
:1047500094F8380202F02002C4F8D4114FF400514A
:10476000984201922846C4F8D811C4E97833019BD5
:1047700014BF00234FF48073C4F8DC3103F018F841
:1047800008B1FFBEFEE704F5AE73C4F8A851C4F843
:10479000F83103B030BD00BF002002400044025891
:1047A0004000024070EE0624014803F079BB00BFD0
:1047B00030F0062402682DE9F84F4B4B9A4201D0A5
:1047C000BDE8F88F494D95F83832002BF8D095F8B0
:1047D0002031002B77D0002405F10C0905F59976DE
:1047E00005F59077A04613E003F0010117F811BC1E
:1047F000A9F1080000F06EF9BBF1010F25D895F87A
:104800002031013409F111090236A2B293422BD9A9
:1048100017F8012F002AF4D0D5F85431002132784E
:1048200033F81400D5F8583103EB041323F81200C1
:10483000338801339BB233805FFA83FA3A789A4225
:10484000D2D88A46A6F80080D0E7CAF34001A9F181
:10485000040000F03FF9BBF1020FCAF38001CED093
:10486000484600F037F9CAE7002395F83802204996
:1048700009229842C5F8C8314FF48060C5F8C011CC
:10488000C5F8C4214FF400614FF40052C5F8CC3193
:1048900008BF4FF48073C5F8D821C5E97401002220
:1048A0001448C5E97732C5F8E42102F081FF08B168
:1048B000FFBEFEE795F82021D5F854110E48BDE85B
:1048C000F84F02F071BA0A4909224FF48060C5F826
:1048D000C831C5E970124FF400614FF40052C5E9C8
:1048E0007330C5E97512DAE70020024070EE062445
:1048F0004000024030F00624CCEF0624704700BF91
:104900008378022B30B504468FB037D0032B33D0D9
:10491000012B31D000230A93E378012B2AD0022BFC
:1049200028D000230B93002320460C9301F062FE55
:104930000546204601F066FE23780990082B13D81F
:10494000DFE803F01F3245586B7E91A40500594BF8
:10495000D3F8E02042F48072C3F8E020D3F8E030CE
:1049600003F480730893089B09A9284603F0EAFD25
:104970000FB030BD0B93D6E70A93CDE711230A930E
:10498000CAE74C4B09A92846D3F8E02042F00102BF
:10499000C3F8E020D3F8E03003F001030093009B5C
:1049A00003F0D0FD0FB030BD424B09A92846D3F823
:1049B000E02042F00202C3F8E020D3F8E03003F038
:1049C00002030193019B03F0BDFD0FB030BD394BD5
:1049D00009A92846D3F8E02042F00402C3F8E020F9
:1049E000D3F8E03003F004030293029B03F0AAFD26
:1049F0000FB030BD2F4B09A92846D3F8E02042F074
:104A00000802C3F8E020D3F8E03003F00803039372
:104A1000039B03F097FD0FB030BD264B09A9284634
:104A2000D3F8E02042F01002C3F8E020D3F8E030E1
:104A300003F010030493049B03F084FD0FB030BD1A
:104A40001C4B09A92846D3F8E02042F02002C3F805
:104A5000E020D3F8E03003F020030593059B03F03A
:104A600071FD0FB030BD134B09A92846D3F8E020E3
:104A700042F04002C3F8E020D3F8E03003F04003F6
:104A80000693069B03F05EFD0FB030BD094B09A9EC
:104A90002846D3F8E02042F08002C3F8E020D3F8A3
:104AA000E03003F080030793079B03F04BFD0FB04A
:104AB00030BD00BF0044025838B5054601F09AFDEC
:104AC0000446284601F09EFD01462046BDE83840D8
:104AD00003F040BF70B506460D4601F08BFD04465D
:104AE000304601F08FFD2A1E0146204618BF0122E4
:104AF000BDE8704003F034BF0023122270B586B0C9
:104B0000CDE9022304930368032B01D80423059302
:104B1000061D841D304601F06DFD0546304601F04E
:104B200071FD034601A92846019303F00BFD2046C1
:104B300001F060FD034620461C4601F063FD01A91B
:104B400003462046019303F0FDFC06B070BD00BF94
:104B5000634A0368934210B58CB028D0614A9342EF
:104B600058D0614A934200F09480604A934201D049
:104B70000CB010BD5E4C5F48D4F8E03043F0020347
:104B8000C4F8E030D4F8E03003F002030A930A9B43
:104B9000FFF7B2FFD4F8F43043F08003C4F8F430E8
:104BA000D4F8F43003F080030B930B9BE0E7504CF8
:104BB0005148D4F8E03043F00203C4F8E030D4F8B0
:104BC000E03003F002030193019BFFF795FFD4F857
:104BD000E83000221F2043F400131146C4F8E830E7
:104BE000D4F8E83003F400130293029BD4F8D830D1
:104BF00043F00103C4F8D830D4F8D83003F00103EF
:104C00000393039B02F022FC1F200CB0BDE8104070
:104C100002F05ABC364C3948D4F8E03043F08003F7
:104C2000C4F8E030D4F8E03003F080030493049B30
:104C3000D4F8E03043F00203C4F8E030D4F8E030B8
:104C400003F002030593059BFFF756FFD4F8E83005
:104C50000022212043F480031146C4F8E830D4F840
:104C6000E83003F480030693069BD4F8D83043F071
:104C70000103C4F8D830D4F8D83003F00103079307
:104C8000079B02F0E3FB21200CB0BDE8104002F0CE
:104C90001BBC1B48FFF730FF154B00224820D3F800
:104CA000E840114644F40004C3F8E840D3F8E84073
:104CB00004F400040894089CD3F8D84044F001049C
:104CC000C3F8D840D3F8D83003F001030993099B07
:104CD00002F0BCFB48200CB0BDE8104002F0F4BB71
:104CE0000054004000580040005C0040001C005888
:104CF0000044025838F30624B0F0062488F1062454
:104D000060F206242DE9F0431A4B87B000254FF0DE
:104D100010099E46EC46184BFF22E04667461A7083
:104D20000EF118060EF13004CDE90055CDE902551B
:104D3000ADF80090BCE80F00CDE90455AEE80F00D7
:104D40009CE803000095ADF800908EE80300B8E8F9
:104D50000F000FC69CE803000095ADF8009086E8B0
:104D600003000FCF0FC49CE8030084E8030007B0E2
:104D7000BDE8F08308000024ACF0062410B5EFF382
:104D8000108472B6084B1A78120602D504B962B6BE
:104D900010BD1B78D82205485BB202FB030014301B
:104DA00003F07EF8F2E700BFACF00624B0F0062472
:104DB000014804F06DBC00BF3CF10624014804F03A
:104DC00067BC00BF14F20624014804F061BC00BFB8
:104DD000ECF206242DE9F0430F68D8243F4D85B04E
:104DE00007FB04F4032F05EB0403036040DCCB68EE
:104DF0000E46012B3CD84DD04FF0D808B646DFF810
:104E0000FC9008FB0758BEE80F00C446ACE80F0052
:104E1000DEF800300DF1100ECCF80030D8F808C0E4
:104E200099E80F000EE90F000EEB8703BCF1010FAC
:104E300053F8103CC8F88C3031D0BCF1020F42D08E
:104E4000BCF1000F35D0317C8C34D82300220120F6
:104E50002C4403FB07534900C3E92602C3F894100E
:104E60002046C3E92822C3E92A2204F003FA18B134
:104E7000012005B0BDE8F0830146204604F014FC93
:104E80000028F5D10146204604F038FC003818BF50
:104E90000120EEE70B7C103B672BADD9E8E701F072
:104EA000EFF80F4B98420CBF0E4B0F4BC8F89030E9
:104EB000C9E701F0E5F80A4B98420CBF0B4B0C4BCD
:104EC000C8F89030BFE701F0DBF8054B98420CBF03
:104ED000084B094BC8F89030B5E700BFB0F0062486
:104EE000000E27072D0FB0303211D0205F439060A5
:104EF0008A62E030200BA0101A0980101478010893
:104F00002DE9F041D0F8008082B00D4617461E46CC
:104F100008F18C04204604F0C3FB2028FAD1D8F80D
:104F20000C3073B96D002046089C33463A46A9B24E
:104F3000009404F0F5F9003818BF012002B0BDE874
:104F4000F081089B32463946204604F0BDFAF2E76C
:104F5000044B10221A7483F8E82083F8C02183F8E8
:104F600098227047B0F0062430B5002395B04FF476
:104F70008071062204460B9306921393CDE90C131D
:104F8000CDE90E33CDE9113301F07CF807282BD0A1
:104F900004F1100541F2883206A9284605F000FB0D
:104FA00028B10123184684F85C3015B030BD0222C8
:104FB000022306A92846CDE9002310220123CDE9CA
:104FC000022300224FF48003CDE9042305224FF091
:104FD000807306926A460F9341F2883305F04CFCC9
:104FE0000028DED115B030BD0323012084F85C30E9
:104FF00015B030BD0000000070B50023A4B04FF024
:1050000080724FF480750446ADF806300D93CDE9FB
:1050100010320122CDE90E53CDE91223CDE914332C
:10502000002943D0F02300F1100508AEADF806309A
:10503000C02341F2883231462846089305F0B0FA81
:1050400028B10123184684F85C3024B070BD41F2C9
:1050500088320DF10601284605F00CFB03460028B6
:10506000EFD105224FF480711E93284616924FF01F
:1050700080721B9321931F9202AA9FED1F7BCDE9A3
:105080001C13CDE922338DED027B9FED1D7B41F298
:10509000883316A98DED047B9FED1B7B8DED067B80
:1050A00005F0EAFB0028CCD124B070BD00F110055A
:1050B00008AE612341F2883231462846089305F054
:1050C0006FFA0028BDD141F288320DF10601284661
:1050D00005F04EFB0028B4D1BDF80630204623F081
:1050E000780343F04003ADF80630FFF73DFF00289A
:1050F0009ED0A6E7AFF30080000000000100000092
:10510000100000000100000000000000000040004E
:105110002DE9F04F00234FF4807501264FF0807881
:1051200004462DED028BABB08DF80730139321931D
:10513000299314950E96CDF85C80CDE91533CDE911
:105140001863CDE91A33CDE92253CDE92433CDE9F3
:10515000273306231C9300F095FF072808D004F19D
:10516000100741F288321CA9384605F019FA40B1FF
:105170000123184684F85C302BB0BDEC028BBDE8EF
:10518000F08F4FF0020A4FF0020B4FF0050941F289
:10519000883308AA1CA93846CDF89480CDF87090C1
:1051A0009FED2D8BCDE908AB4FF0000A4FF4800B3B
:1051B0008DED0A8BCDE90CAB05F05EFB0028D7D155
:1051C00041F2883238460EA905F0EAF90028CFD11D
:1051D000402341F288320DF1070138468DF807303F
:1051E00005F048FA0028C3D141F288330EA902AA7B
:1051F0003846CDF83890CDF85C809FED197B8DED69
:10520000048BCDE906AB8DED027B05F035FB034643
:105210000028ADD1CDF870904FF00109CDF8948001
:105220004FF00008219308AA29931CA9384622951B
:10523000CDE92333CDE9273341F288338DED0A8B55
:10524000CDE90CABCDE9088905F016FB002893D019
:10525000304684F85C608FE7100000000100000019
:1052600040000000400000002DE9F043624CA3B074
:105270000D46046000F006FF072800F0A9802868AA
:1052800023466968AA6807C31E46AB8926F8043B13
:105290003046257B677B05F065F9E0B9574B012D5A
:1052A0004FF00108E061236114BF4FF480134FF405
:1052B0000003C4E9058893FAA3F3B3FA83F34FF428
:1052C0008079013BC4F82490C4E90B003046236286
:1052D00005F0DCF838B10122134684F85C2018464A
:1052E00023B0BDE8F08366230B90139041F288321F
:1052F00006A90693CDE90C90CDE90E00CDE9110089
:10530000304605F04DF90028E5D1992341F2883265
:1053100006A93046069305F043F90028DBD10523A2
:105320001C9019906A4614934FF08073219014A931
:105330001D9341F288339FED2A7BCDE91A90CDE988
:105340001F008DED007B9FED287B30468DED027BAD
:105350009FED277B8DED047B05F08EFA0028BAD1F6
:1053600029462046FFF748FE0028B4D12046FFF723
:10537000CFFE03460028AED1002FB0D1189330469F
:105380000027002606AA14A9CDF86890CDE91F339E
:10539000EB2314934FF440631B934FF40053179384
:1053A0004FF440431C93A0231693062319934FF008
:1053B000805321934FF04073CDE906671D9305F0AC
:1053C000D3FA034600288AD0434684F85C8086E7F7
:1053D00001230322184684F85C2023B0BDE8F08343
:1053E00000000000010000001000000001000000AB
:1053F000000000000000400010F40624005000529D
:105400002DE9F04F8FB0414B0024026800AF9A4263
:105410007C63C7E90944C7E90B4403D03C37BD4668
:10542000BDE8F08F3A4B40F609213A48EB46D3F8F5
:10543000D42007F11C0607F1220A4FF0020942F4BA
:1054400080424FF00308C3F8D420D3F8D42002F4EC
:105450008042BA60BA68D3F8E02042F04002C3F854
:10546000E020D3F8E02002F04002FA60FA68D3F8B6
:10547000E02042F02002C3F8E020D3F8E02002F060
:1054800020023A613A69D3F8E02042F01002C3F8F2
:10549000E020D3F8E02002F010027A617A69D3F8B4
:1054A000E02042F00202C3F8E020D3F8E030F861D7
:1054B00003F002033984BB61174B7B60BB697B68D7
:1054C00053F8040F7B6001F095F87B680546186877
:1054D00001F098F816F8013B786207F1240128469C
:1054E000C7F830807B63C7E90A9403F02BF8564570
:1054F000E5D100225C20114601F0A8FF5C2001F0FC
:10550000E3FF3C37DD46BD46BDE8F08F005000525A
:10551000004402580A0A09096CF40624114B026877
:105520009A4200D07047104A70B5D2F8D4300F4C70
:1055300023F4804304F11806C2F8D43054F8040F61
:1055400001F058F80546206801F05CF8014628464D
:1055500003F038F9B442F1D15C20BDE8704001F0AD
:10556000C1BF00BF00500052004402586CF4062432
:10557000014805F085BA00BF20F40624084B1A1D27
:10558000981D03F1080110B49C1C9A6603F10A02ED
:10559000C3E91834C3E91B015DF8044B5A6770472F
:1055A00010F4062438B5036871B9026A00F12805C1
:1055B00000F5AC74012A0CBF002140218BBB1D4BB0
:1055C0005722C0F858310DE0426A00F1C00500F5DD
:1055D000E874012A0CBF00214021EBB1164B5A227E
:1055E000C0F8D03100232046C4E901214FF4805295
:1055F0004FF48061636262614FF48042C4E9033119
:105600004FF48073C4E906234FF40033236202F0A1
:10561000CFF858B1FFBEFEE7084B5822C0F8D03192
:10562000E0E7074B5922C0F85831DBE7C5E92044D1
:10563000A56338BD100002407000024028000240FF
:10564000580002402DE9F043821D05468BB0031D32
:1056500005F10A010830CDE9052305F10C02AB691B
:10566000CDE907010992002B3DD0EB69B3FA83F82D
:105670004FEA58180123022205AE0AAF4FF006097F
:105680000393CDE9012356F8044B2B7922789342FA
:1056900016D02B68F3B1012B02D1F2B10A23049387
:1056A000204600F0AFFF03462046009300F0A2FF23
:1056B000694602F047FFBE42E5D10BB0BDE8F0837A
:1056C000697963789942E4D1B8F1000FF3D02B687F
:1056D000002BE0D1CDF81090E2E76378022B14BFE5
:1056E0000A230823DBE74FF00108C3E7534A0368A6
:1056F000934230B505468BB055D02032934252D0FC
:105700004F4A934204D02032934201D00BB030BDB7
:105710004C4C4D48D4F8E03043F00103C4F8E0307D
:10572000D4F8E03003F001030593059BD4F8E03092
:1057300043F00803C4F8E030D4F8E03003F0080385
:105740000693069BD4F8E03043F04003C4F8E03001
:10575000D4F8E03003F040030793079BD4F8F0300F
:1057600043F40003C4F8F030D4F8F03003F400033D
:105770000893089BFFF766FFD4F8D830296843F0F8
:1057800001032F4A3048C4F8D830891AD4F8D830E9
:1057900018BF012103F001030993099B0BB0BDE879
:1057A0003040FFF7FFBE274C2848D4F8E03043F0E4
:1057B0000103C4F8E030D4F8E03003F001030093B3
:1057C000009BD4F8E03043F01003C4F8E030D4F884
:1057D000E03003F010030193019BD4F8E03043F074
:1057E0004003C4F8E030D4F8E03003F04003029303
:1057F000029BD4F8F03043F48003C4F8F030D4F8BE
:10580000F03003F480030393039BFFF71BFFD4F8EE
:10581000D830296843F00103084A0C48C4F8D8304E
:10582000891AD4F8D83018BF012103F0010304937A
:10583000049B0BB0BDE83040FFF7B4BE04580140F4
:10584000045C014000440258E4F6062488F406246F
:10585000014802F025BB00BFE0F50624014802F034
:105860001FBB00BF58F60624014802F019BB00BF59
:105870003CF80624014802F013BB00BFB4F806242C
:105880001A4A0368934210B40BD02032934208D0D6
:10589000174A934216D02032934213D05DF8044B3E
:1058A0007047144B0022D3F85442C3F85822002CFE
:1058B000F4D0D3F84802D3E9931223465DF8044BA1
:1058C000520818470B4B0022D3F8B044C3F8B42455
:1058D000002CE3D0D3F8AC24D3F8A814D3F8A40454
:1058E000520823465DF8044B184700BF0458014096
:1058F000045C014088F40624184A0368934210B4FB
:105900000BD02032934208D0154A934217D0203250
:10591000934214D05DF8044B7047124BD3E99424A2
:105920005208C3F85822002CF4D0D3E99201234640
:1059300001EB820100EB82005DF8044B1847094B34
:10594000D3F8AC24D3F8B0445208C3F8B424002CE4
:10595000E0D0D3F8A814D3F8A404E8E70458014031
:10596000045C014088F406242DE9F04F0C684FF4E4
:105970001776754F87B004FB06F6012C07EB060A75
:10598000C0F800A000F3A0800D468E464FF000083E
:10599000D44669A3D3E9002369A1D1E90001CDE987
:1059A000022306ABCAF8508203EB8403CDE904015D
:1059B00053F810BC53F8083CCAE992880193BEE83A
:1059C0000F00ACE80F00BEE80F00ACE80F00019B31
:1059D0009EE80300CAF828B0CAF8C0308CE803007B
:1059E0002B69042B0CD8DFE803F0737D879103004B
:1059F0004FF41773554A03FB04739A64C3F8E0200D
:105A0000AA692B6A002A43D0002B4FF4177308BFF2
:105A1000022203FB047318BF0322DA6201221A6315
:105A2000EA696B6A002A40D1191E4FF4177318BF38
:105A3000012103FB0473C3E931126B69022B05D802
:105A4000434A12F80380434A52F823904FF41773E5
:105A500006F128004246494603FB047400233844FB
:105A600063646363E365C4F8DC30C4F8CC30C4F825
:105A7000F430C4E90F33C4E91533C4E93533C4E95C
:105A80003B33022307F09EF8002849D0FFBEFEE713
:105A9000191E4FF4177318BF012103FB0473C3E9E8
:105AA0000B12EA696B6A002ABED0002B4FF4177301
:105AB00008BF022203FB047318BF0322C3F8C420EB
:105AC0000122C3F8C820B8E7012007B0BDE8F08F75
:105AD0004FF417734FF4FA5203FB04739A64C3F83C
