:020000040800F2
:1000000000000220110A00080D0A0008DD66000841
:100010000D0A00080D0A00080D0A00080000000083
:100020000000000000000000000000000D0A0008B1
:100030000D0A0008000000000D0A000861660008B3
:100040000D0A00080D0A00080D0A00080D0A000834
:100050000D0A00080D0A00080D0A00080D0A000824
:100060000D0A00080D0A00080D0A00086962000860
:1000700075620008C1510008816200088D620008A5
:100080009D130108955700080D0A00080D0A000885
:100090000D0A00080D0A00080D0A00080D0A0008E4
:1000A0000D0A00080D0A00080D0A00080D0A0008D4
:1000B0005D0701086907010875070108C9570008AD
:1000C0000D0A0008D55700080D0A0008CDFF0008EA
:1000D000D9FF0008D11101080112010835120108E9
:1000E0000D0A00080D0A0008000000000D0A0008B3
:1000F0000D0A00080D0A00080D0A00080D0A000884
:100100000D0A00080D0A000881070108E5FF000834
:10011000691201089D1201080D0A00080D0A000865
:100120000D0A00080D0A0008090001083D00010839
:10013000D11301080D0A00080D0A00080D0A000875
:1001400000000000000000000000000000000000AF
:100150000D0A00080D0A00080D0A0008D112010856
:10016000E15700080D0A000871660008956600084E
:100170000D0A0008B96600080D0A00080D0A0008FB
:100180000D0A00080D0A00080513010835130108BF
:10019000F1FF0008FDFF00080D0A00080D0A000825
:1001A0000D0A00080D0A00080D0A00080D0A0008D3
:1001B000895F00080D0A00080D0A00080D0A0008F2
:1001C0000D0A00080D0A000889F7000895F70008D5
:1001D0000D0A0008A1F700080D0A00080D0A000822
:1001E0000D0A00080D0A00080D0A00080D0A000893
:1001F0000D0A00080D0A00080D0A00080D0A000883
:100200000D0A00080D0A00080D0A00080D0A000872
:100210000D0A00080D0A00080D0A00080D0A000862
:100220000D0A00080D0A00080D0A00080000000071
:100230000D0A00080D0A0008000000000D0A000861
:100240000D0A00080D0A00080D0A00080D0A000832
:100250000D0A00080D0A00080D0A00080D0A000822
:100260000D0A00080D0A00080D0A00080D0A000812
:100270000D0A00080D0A00086913010800000000BB
:100280000D0A00080D0A00080D0A00080000000011
:08029000000000000D0A000847
:1002A00010B5054C237833B9044B13B10448AFF3B0
:1002B00000800123237010BD2006002400000000F0
:1002C000A898010808B5034B1BB103490348AFF3D5
:1002D000008008BD0000000024060024A898010842
:1002E00001F0FF01102A2BDB10F0070F08D010F8E7
:1002F000013B013A8B422DD010F0070F42B3F6D1EB
:10030000F0B441EA012141EA014122F007047FF003
:1003100000070023F0E80256083C85EA010586EA5A
:10032000010685FA47F5A3FA87F586FA47F6A5FA96
:1003300087F68EB9EED1F0BC01F0FF0102F00702A2
:1003400032B110F8013B013A83EA010313B1F8D14D
:100350000020704701387047002D06BF354603382E
:10036000073815F0010F07D1013015F4807F02BF67
:10037000013015F4C03F0130F0BC0138704700BFB8
:10038000034613F8012B002AFBD1181A01387047D5
:1003900081F0004102E000BF83F0004330B54FEA36
:1003A00041044FEA430594EA050F08BF90EA020FA3
:1003B0001FBF54EA000C55EA020C7FEA645C7FEA36
:1003C000655C00F0E2804FEA5454D4EB5555B8BF59
:1003D0006D420CDD2C4480EA020281EA030382EACA
:1003E000000083EA010180EA020281EA0303362D5C
:1003F00088BF30BD11F0004F4FEA01314FF4801C2F
:100400004CEA113102D0404261EB410113F0004F40
:100410004FEA03334CEA133302D0524263EB4303F7
:1004200094EA050F00F0A780A4F10104D5F1200E95
:100430000DDB02FA0EFC22FA05F2801841F10001F0
:1004400003FA0EF2801843FA05F359410EE0A5F1C4
:1004500020050EF1200E012A03FA0EFC28BF4CF0F5
:10046000020C43FA05F3C01851EBE37101F00045AB
:1004700007D54FF0000EDCF1000C7EEB00006EEBB8
:100480000101B1F5801F1BD3B1F5001F0CD3490842
:100490005FEA30004FEA3C0C04F101044FEA445299
:1004A00012F5800F80F09A80BCF1004F08BF5FEA20
:1004B000500C50F1000041EB045141EA050130BD00
:1004C0005FEA4C0C404141EB0101013C28BFB1F512
:1004D000801FE9D291F0000F04BF01460020B1FA5D
:1004E00081F308BF2033A3F10B03B3F120020CDA30
:1004F0000C3208DD02F1140CC2F10C0201FA0CF00E
:1005000021FA02F10CE002F11402D8BFC2F1200C72
:1005100001FA02F120FA0CFCDCBF41EA0C01904028
:10052000E41AA2BF01EB0451294330BD6FEA040471
:100530001F3C1CDA0C340EDC04F11404C4F120025C
:1005400020FA04F001FA02F340EA030021FA04F36E
:1005500045EA030130BDC4F10C04C4F1200220FAC5
:1005600002F001FA04F340EA0300294630BD21FA03
:1005700004F0294630BD94F0000F83F4801306BFC9
:1005800081F480110134013D4EE77FEA645C18BFBD
:100590007FEA655C29D094EA050F08BF90EA020F54
:1005A00005D054EA000C04BF1946104630BD91EA4C
:1005B000030F1EBF0021002030BD5FEA545C05D14F
:1005C0004000494128BF41F0004130BD14F580048E
:1005D0003CBF01F5801130BD01F0004545F0FE4102
:1005E00041F470014FF0000030BD7FEA645C1ABF37
:1005F000194610467FEA655C1CBF0B46024650EA6E
:10060000013406BF52EA033591EA030F41F4002199
:1006100030BD00BF90F0000F04BF0021704730B51F
:100620004FF4806404F132044FF000054FF00001F4
:1006300050E700BF90F0000F04BF0021704730B5B5
:100640004FF4806404F1320410F0004548BF40428A
:100650004FF000013EE700BF42004FEAE2014FEADF
:1006600031014FEA02701FBF12F07F4393F07F4FBA
:1006700081F06051704732F07F4208BF704793F0BD
:100680007F4F04BF41F40021704730B54FF46074D0
:1006900001F0004521F000411CE700BF50EA0102D3
:1006A00008BF704730B54FF000050AE050EA01027C
:1006B00008BF704730B511F0004502D5404261EBEC
:1006C00041014FF4806404F132045FEA915C3FF42D
:1006D000D8AE4FF003025FEADC0C18BF03325FEACA
:1006E000DC0C18BF033202EBDC02C2F1200300FA7B
:1006F00003FC20FA02F001FA03FE40EA0E0021FAA0
:1007000002F11444BDE600BF53B94AB9002908BF3D
:1007100000281CBF4FF0FF314FF0FF3000F074B9DC
:10072000ADF1080C6DE904CE00F006F8DDF804E048
:10073000DDE9022304B070472DE9F047089D044627
:100740008E46002B4DD18A42944669D9B2FA82F284
:1007500052B101FA02F3C2F1200120FA01F10CFAC0
:1007600002FC41EA030E94404FEA1C48210CBEFBF8
:10077000F8F61FFA8CF708FB16E341EA034306FB81
:1007800007F199420AD91CEB030306F1FF3080F010
:100790001F81994240F21C81023E63445B1AA4B25D
:1007A000B3FBF8F008FB103344EA034400FB07F7FF
:1007B000A7420AD91CEB040400F1FF3380F00A8140
:1007C000A74240F207816444023840EA0640E41B35
:1007D00000261DB1D4400023C5E900433146BDE8E1
:1007E000F0878B4209D9002D00F0EF800026C5E983
:1007F000000130463146BDE8F087B3FA83F6002E9B
:100800004AD18B4202D3824200F2F980841A61EB12
:10081000030301209E46002DE0D0C5E9004EDDE730
:1008200002B9FFDEB2FA82F2002A40F09280A1EB18
:100830000C014FEA1C471FFA8CFE0126200CB1FB6D
:10084000F7F307FB131140EA01410EFB03F0884266
:1008500008D91CEB010103F1FF3802D2884200F2F3
:10086000CB804346091AA4B2B1FBF7F007FB101185
:1008700044EA01440EFB00FEA64508D91CEB040423
:1008800000F1FF3102D2A64500F2BB800846A4EB7E
:100890000E0440EA03409CE7C6F12007B34022FA69
:1008A00007FC4CEA030C20FA07F401FA06F31C4398
:1008B000F9404FEA1C4900FA06F3B1FBF9F8200CA5
:1008C0001FFA8CFE09FB181140EA014108FB0EF0EB
:1008D000884202FA06F20BD91CEB010108F1FF3A3B
:1008E00080F08880884240F28580A8F10208614447
:1008F000091AA4B2B1FBF9F009FB101144EA014155
:1009000000FB0EFE8E4508D91CEB010100F1FF34FF
:100910006CD28E456AD90238614440EA0840A0FB97
:100920000294A1EB0E01A142C846A64656D353D06D
:100930005DB1B3EB080261EB0E0101FA07F722FA91
:1009400006F3F1401F43C5E9007100263146BDE8BA
:10095000F087C2F12003D8400CFA02FC21FA03F31D
:10096000914001434FEA1C471FFA8CFEB3FBF7F09E
:1009700007FB10360B0C43EA064300FB0EF69E42C3
:1009800004FA02F408D91CEB030300F1FF382FD25C
:100990009E422DD9023863449B1B89B2B3FBF7F604
:1009A00007FB163341EA034106FB0EF38B4208D9DD
:1009B0001CEB010106F1FF3816D28B4214D9023E1E
:1009C0006144C91A46EA004638E72E46284605E73C
:1009D0000646E3E61846F8E64B45A9D2B9EB02080D
:1009E00064EB0C0E0138A3E74646EAE7204694E79D
:1009F0004046D1E7D0467BE7023B614432E73046D0
:100A000009E76444023842E7704700BFFEE700BFD1
:100A10000B480C4A904203D0121A0B4916F084FE80
:100A20000A480B4A904203D0121A002116F0A4FE85
:100A300006F07EF816F044FE02F092FAFEE700BFE0
:100A40000000002420060024DC9801082006002471
:100A5000FCD20224704700BF704700BF704700BF40
:100A6000704700BF49424FF400721030C9B216F00F
:100A700083BE00BF704700BF704700BF2020704793
:100A800080207047704700BF002A00F0CB80002311
:100A9000013A2DE9F04F2DED028B8BB0DFF8BC81D0
:100AA0000493530803910593D8F80030002B5EDDC2
:100AB0000027DFF8ACB1DFF8ACA1B9465A4E1DE013
:100AC00015F092F9594B2846B0EE408AD3ED008AD2
:100AD00015F0DEF9D6ED007A554B60EE277A93EDEE
:100AE000007AE8EE287A67EE277ACDED077A0137AB
:100AF000D8F80030FFB29F42B94638DA09EB490016
:100B00001BF809104B4D4FEA89040AEB001014F052
:100B10003DF8494844F24C0209EB890344F22401B0
:100B200002FB090205EBC309114489ED010A81EDBD
:100B3000000A002FC4D0104615F056F93B4B48462A
:100B4000B0EE408AD3ED008A15F0A2F9D6ED007A16
:100B5000374B60EE277A9DED077A1C44E8EE287A41
:100B6000D4ED006AA7EEA67A8DED077ABFE7334B86
:100B70001C78002C4CD132489DED070A14F0C8FDBA
:100B8000F0EE087A21462F4820EE270A8DED070A5D
:100B900002F02EFE2C489DED070A14F019F90022F0
:100BA000002307A9009209AA099308AB27488DEDF5
:100BB000070A14F021FC2648DDED087A90ED007A52
:100BC000244C27EE877A9DED076AD4ED005A224D1A
:100BD000A6EE257A039AD5ED006A0832049E0392A8
:100BE000731C26EE877A02ED027AD0ED005AD4ED1E
:100BF000006A67EEA57A95ED007AE6EE267A67EE52
:100C0000277A42ED017A059AB24206D004934BE767
:100C100001210C4802F0ECFDBCE70BB0BDEC028BEF
:100C2000BDE8F08F704700BF5C6902244C69022464
:100C300014690224C80700246C990024F068022477
:100C4000341B02246C060024801B0224000000C018
:100C500060690224EC680224040000240C000024D3
:100C600008690224A806002410B504464FF4047154
:100C700015F001FB204610BDF0B500F1080683B069
:100C80000660F9B1044608460D46FFF779FB0F28C8
:100C9000019005EB00070BD83A462946304615F07F
:100CA0007EFB019B226800216360D15403B0F0BD3C
:100CB000002201A9204615F0EDFA019B06462060AE
:100CC000A360E9E7014815F0DBFA00BF8888010856
:100CD000704700BF704700BF2DE9F04F4FF0B008DC
:100CE00085B0054600F1080700F18F0600F28F2954
:100CF0004FF47A7B4FF0000A297B022303AA38467F
:100D0000CDF800B0A6F180048DF80CA08DF80D8010
:100D100004F002FE297B022303AA3846CDF800B076
:100D20008DF80CA08DF80DA004F0F6FD1020CDF884
:100D300000B0022303AA8DF80D003846297B8DF8F8
:100D40000CA004F0E9FD4FF47A7014F801CF4FF0D5
:100D5000400E297B0223009003AA38468DF80CE050
:100D60008DF80DC004F0D8FDB442ECD104F180063A
:100D700008F101084E455FFA88F8B9D105B0BDE821
:100D8000F08F00BF2DE9F04F85B0A1F1200504AC34
:100D90009DF83870009104E90C00EBB25E2B00F274
:100DA0009580036880465D4ADB689DF80840934261
:100DB0009DF8096040F094808020B8F80430234406
:100DC000834200F38380D8F80030554A9B689342F1
:100DD00040F088802020B8F80620931901928342C1
:100DE00074DC002E00F0898006FB05F56FF00040F2
:100DF000039B964628442E44B8F804A003EB400019
:100E0000023B03EB460B30F8026FBCB30EF0070356
:100E10004FF0010C4FEADE0251460CFA03FC0AF1D6
:100E200010034FFA8CFC03EBC21200236FEA0C098B
:100E300042440EE07F2907D8BEF11F0F04D8157871
:100E40009FB14CEA050515700133013201319C4216
:100E500014D006FA03F52D04ECD47F29F4D8BEF1A2
:100E60001F0FF1D81578002FEBD0013309EA0505E3
:100E7000013201319C4202F8015CEAD158450EF181
:100E8000010EC0D1D8F8003054442449DA68A4B225
:100E90008A422DD1802084421CD29B68204AA8F827
:100EA0000440934221D12020019B834207D3D8F8EC
:100EB00000301B4A9B68934229D11F230193DDE92F
:100EC0000003A8F8063005B0BDE8F08F002005B09B
:100ED000BDE8F08FDA6811498A4211D17F24DCE73E
:100EE00098476AE74046984775E740469847DBE7EA
:100EF00040469047D8F80030CDE7B8F804A0C1E7E5
:100F0000404690470138D8F8003084B2C5E74046E3
:100F10009847013883B20193D1E700BF810A0008E6
:100F20007D0A00087F291ED81F2A1CD86BB1D30860
:100F30004FF0010C02F0070201EBC3130CFA02F2AE
:100F4000C1180B7C1A430A747047D3084FF0010C88
:100F500002F0070201EBC3130CFA02FCC1180A7C71
:100F600022EA0C020A7470472DE9F04F83B05C1A34
:100F70000C9E002C9DF83490A6EB0208B8BF64428A
:100F8000B8F1000FB8BFC8F100088B428CBF4FF01A
:100F9000010A4FF0FF3A9642A4EB080C51D84FF0EB
:100FA000FF357F2B019512D81F2E10D8F50806F0BB
:100FB000070E012703EBC5150544B9F1000F47D013
:100FC00007FA0EF795F810E047EA0E072F749642DD
:100FD00001D18B4229D0C8F100077F2914D81F2ADC
:100FE00012D8D50802F0070B4FF0010E01EBC51522
:100FF0000544B9F1000F1BD00EFA0BFE95F810B0A6
:101000004EEA0B0E85F810E0B7EB4C0F4FEA4C059B
:1010100002DAACEB080C5144AC4202DD019DA44461
:101020002A449942D9D19642D7D103B0BDE8F08F76
:101030000EFA0BFB95F810E02EEA0B0E85F810E087
:10104000E2E701257F2B0195C5D81F2EAED9C2E757
:1010500007FA0EFE2F7C964227EA0E072F74B8D0AF
:10106000B9E700BF000000002DE9F04F2DED068B21
:1010700083B01F4680460D469DF8503016460193BA
:10108000139B002BC0F22182129A134406EE103AF1
:10109000DDED127AB8EEC66B9FEDCD4BB8EEE77B77
:1010A0009FEDCD5B27EE047B26EE046B87EE050BF0
:1010B00086EE05ABF7EEC08BB0EE680A15F0A4FA29
:1010C00007EE907AB7EECAABF8EE679AB0EE408AB8
:1010D000B0EE680A15F028FE60EE698AB0EE4A0AA2
:1010E00015F092FAB0EE409AB0EE4A0A15F01CFEE6
:1010F00020EE690A29EE888A29EE899A70EE687ACC
:10110000F0EE006A39EE487A67EEA77AE7EE077AE2
:10111000F4EEE67AF1EE10FA06D5139BB42B40F309
:1011200096804FF0010901E04FF000090124784258
:101130004FF0000C0095E31B214627462246A340B2
:10114000B9F1000F6AD1424206EE90CACCF100011B
:1011500007EE102AB8EEE66A07EE901A06EE900A3D
:10116000B8EEC77A139A66EE084AF8EEE77AB42A20
:1011700027EE284AF8EEE66A67EE885A74EEC43A1B
:1011800026EEA85A26EE096A66EE806A67EE897A2C
:1011900027EE007AF5EEC03A40F3F280F1EE10FA55
:1011A00000F17F8176EE473A74EEC54AF5EEC03A1B
:1011B000F1EE10FAF5EEC04ACCBF01220022F1EEAA
:1011C00010FA00F1778136EE666A35EEC55AB5EE53
:1011D000C06AF1EE10FAB5EEC05ACCBF0121002171
:1011E000F1EE10FA00F16F8177EEE66AF5EEC06A73
:1011F000F1EE10FACCBF0127002775EEC45AF5EEC8
:10120000C05AF1EE10FA00F1478177EEC77AF5EE99
:10121000C07AF1EE10FACCBF01240024002A40F07D
:101220008A80002964D1BFB9C4BB9C4558DB0CF14E
:10123000010C03EB4C0E1CEB000F0EF1010E00F045
:10124000C08098424FDB734600287FF779AF03B028
:10125000BDEC068BBDE8F08F009DA6EB0C0E00EBFD
:10126000050ABAF17F0FDFD8BEF11F0FDCD84FEAB5
:10127000DE0B019D0AEBCB1A002D00F0B1800EF0C1
:10128000070BC2444FF0010E0EFA0BFE9AF810B095
:101290004EEA0B0E8AF810E0002CC6D0009DA6EB9B
:1012A0000C0EA5EB000ABAF17F0FBED8BEF11F0FDE
:1012B000BBD84FEADE0B019D0AEBCB1A002D00F0E4
:1012C000AE800EF0070BC2444FF0010E9C450EFAA3
:1012D0000BFE9AF810B04EEA0B0E8AF810E0A6DA70
:1012E00098429E46AFDA01300EEB40030133ABE784
:1012F000009D0CEB060E00EB050ABAF17F0F92D8A9
:10130000BEF11F0F8FD84FEADE0B019D0AEBCB1AFF
:10131000002D73D00EF0070BC2444FF0010E0EFAF1
:101320000BFE9AF810B04EEA0B0E8AF810E0002F70
:101330003FF47AAF90E7009D0CEB060EA5EB000A98
:10134000BAF17F0F3FF66DAFBEF11F0F3FF669AFE9
:101350004FEADE0B019D0AEBCB1A002D6DD00EF08B
:10136000070BC2444FF0010E0EFA0BFE9AF810B0B4
:101370004EEA0B0E8AF810E000293FF454AFB7E7AD
:10138000F1EE10FA7ED44A4674EEC54AF5EEC04A34
:10139000F1EE10FA6CD4002135EEC55AB5EEC05A04
:1013A000F1EE10FA5AD4002775EEC45AF5EEC05A81
:1013B000F1EE10FA3FF529AF0024002A3FF431AFD7
:1013C000B9E798428FDB00233BE700BFAFF3008013
:1013D0007A008BFCFA210940000000000080664082
:1013E000C2444FF0010B0EF0070E0BFA0EFE9AF8F6
:1013F00010B02BEA0E0E8AF810E015E7C2444FF049
:10140000010B0EF0070E0BFA0EFE9AF810B02BEA45
:101410000E0E8AF810E0002F3FF406AF1CE7C2441E
:101420004FF0010B0EF0070E0BFA0EFE9AF810B0FB
:101430002BEA0E0E8AF810E0F7E6C2444FF0010BDB
:101440000EF0070E0BFA0EFE9AF810B02BEA0E0EF5
:101450008AF810E000293FF4E6AE49E777EEE66A45
:10146000F5EEC06AF1EE10FACCBF012700279BE72A
:1014700036EE666AB5EEC06AF1EE10FACCBF012115
:10148000002189E776EE473AF5EEC03AF1EE10FA20
:10149000CCBF0122002277E70124002A3FF4C1AE2D
:1014A00049E774EEC54A0122F5EEC04AF1EE10FAA2
:1014B0007FF589AE35EEC55A0121B5EEC05AF1EE81
:1014C00010FA7FF591AE012797E6DDE91223134468
:1014D00006EE102A1293139B5B421393D8E500BFCC
:1014E0002DE9F04F89B008AC9DF84870019104E9EE
:1014F0000C000B78002B00F0AB801A469DF818808A
:101500009DF819300646454690460393079B059380
:10151000A8F12004E3B25E2B00F29E8033685E4A9D
:10152000DB68934240F09B808020B3882B44834249
:1015300000F392803368594A9B68934240F092804E
:101540002020F188039A02918B18834200F3848053
:10155000002A00F0918002FB04F46FF00049059B23
:10156000A1441444B6F804B003EB4909023BCDF89A
:10157000108003EB44030C469A4639F802CFA5B31A
:1015800004F007034FF0010EE20859460EFA03FE7D
:101590000BF110034FFA8EFE03EBC21200236FEA29
:1015A0000E0832440DE07F2906D81F2C04D810788D
:1015B00097B14EEA00001070013301320131AB42A5
:1015C00013D00CFA03F00004EDD47F29F4D81F2CBB
:1015D000F2D81078002FECD0013308EA0000013275
:1015E0000131AB4202F8010CEBD1D14504F1010409
:1015F000C3D1DDF8108032680BEB05042649D368AF
:10160000A4B28B4234D18020844204D3D3682249CF
:101610008B423AD17F249368204AB480934224D1EC
:101620002020029B834206D333681C4A9B68934266
:1016300025D11F230293029BF380019B187840451C
:1016400007D113F8018F0193B8F1000F7FF460AF59
:10165000002009B0BDE8F08F4FF00008EDE73046FC
:10166000984762E7304698476BE730469847D8E797
:10167000304698473268C7E7B6F804B0BBE7304653
:101680009847013883B20293D5E73046984701382E
:10169000326884B2BFE700BF810A00087D0A0008F3
:1016A0002DE9F04F89B01D46884606901046129CE1
:1016B00010F8013B13999DF85060009233B100225D
:1016C00010F8013B0132002BFAD193B22A786878E6
:1016D00012FB03F302B21BB223EAE373082900F200
:1016E000A981DFE811F00201140120013401420157
:1016F0005001670171010900A18827880F44B4F9DE
:101700000610FF1A0029BFB2C0F2FF80B4F802C071
:1017100006980CEB6104C280A4EB52028380078020
:1017200094B24480A64AD8F8003011460192DA6893
:101730008A4240F08D818020B84205D8DA6801994C
:101740008A4240F09A817F279E4A9B68A8F80470DD
:101750009342039240F089812020A04207D8D8F814
:101760000030039A9B68934240F082811F24009BC3
:10177000A8F8064093F800B06B782C7804936B6857
:101780000793BBF1000F00F0AC80ABF12005EBB28A
:101790005E2B00F22E81D8F80030019ADB6893426C
:1017A00040F02A818020B8F8043023449842C0F2E7
:1017B0002081D8F80030039A9B68934240F01F8143
:1017C0002020B8F80610049A02918B189842C0F2B3
:1017D0001081002A00F01E8102FB05F56FF0004E1B
:1017E000079BAE441544CDF814B003EB4E0E023BFC
:1017F000B8F804A003EB45030D469B463EF8027F74
:10180000A4B305F007034FF0010CEA0851460CFAA7
:1018100003FC0AF110034FFA8CFC03EBC212002305
:101820006FEA0C0942440DE07F2906D81F2D04D829
:10183000107896B14CEA000010700133013201318A
:101840009C4213D007FA03F00004EDD47F29F4D8AA
:101850001F2DF2D81078002EECD0013309EA0000D9
:10186000013201319C4202F8010CEBD1F34505F144
:101870000105C3D1DDF814B0D8F800200AEB040547
:101880000199D368ADB28B4240F0BF808020854281
:1018900005D3D36801998B4240F0C5807F259368BA
:1018A000039AA8F80450934240F0AC802020029B99
:1018B000834208D3D8F80030039A9B68934240F0E3
:1018C000AC801F230293029BA8F80630009A13787D
:1018D0005B4506D112F801BF0092BBF1000F7FF407
:1018E00054AF069809B0BDE8F08FB4F9041027880A
:1018F0000029B8BF013107EB6107B4F90610A7EB67
:1019000063070029BFB2BFF601AF0131FEE6B4F9AB
:1019100000700699B4F902400F80BFB24C80A4B2A7
:101920008B80CA80FEE6B4F9041027880029B4F938
:101930000240B8BF013107EB610706998B80A7EB26
:1019400063034C80A4B29FB2CA800F80EAE6A188EC
:101950002788B4F902400F4406998B80FB1A4C800B
:10196000A4B29FB2CA800F80DCE6E7886188394460
:10197000B4F90070081A069984B20F808B80BFB248
:10198000CA804C80CEE6B4F9041027880029B8BF7D
:10199000013107EB6107A7EB6307B4F802C0BFB2E0
:1019A000E488069964448B80201ACA800F8084B230
:1019B0004C80B7E62788A1880F44FF1AEDE700BFE7
:1019C000810A00087D0A0008B4F90610B4F802C0C4
:1019D0000029B4F900700698B8BF0131C2800CEB41
:1019E000610407808380BFB2A4EB520294B24480AA
:1019F00098E64FF0000B69E740469847D3E640462B
:101A00009847DEE64046984751E740469847D8F861
:101A100000203CE7B8F804A02EE74046984701387C
:101A200083B202934FE7404698470138D8F8002028
:101A300085B234E7D8F800300024069A12491480A1
:101A400054809480D480DA6801918A4205D0274678
:101A500040469047D8F800306EE69B680B4AA8F8DD
:101A60000440934203923FF482AE4046984774E6A6
:101A700040469847013884B279E64046904701389D
:101A8000D8F8003087B25FE6810A00087D0A0008B6
:101A90002DE9F04F87B09DF84850109C2E460195D7
:101AA0009DF844509EB399422ED89946A24228D818
:101AB0007F29164694BF0023012308E09CF810807C
:101AC0004EEA080E8CF810E00136B44219D31F2EEE
:101AD000FAD8002BF8D14FEAD60C06F0070E4FF0DB
:101AE000010801EBCC1C08FA0EFE8444002DE5D160
:101AF0009CF810B001362BEA0E0AB4428CF810A004
:101B0000E5D201318945D1D207B0BDE8F08FA3EB12
:101B10000108B8F1000FB8BFC8F100089942C0F041
:101B20004E817F2B4FF0FF3A94BF002601261F2ADB
:101B3000009694BF002701270297A6B99FB9D6083F
:101B400002F0070C012703EBC6160644002D00F037
:101B5000948107FA0CF796F810C047EA0C0737741F
:101B6000002602960096994200F0978146469446D8
:101B70008E46BEF17F0F16D8BCF11F0F13D84FEA67
:101B8000DC070CF0070B4FF001090EEBC7170744F9
:101B9000002D00F0398109FA0BF997F810B049EAE5
:101BA0000B0987F81090770018BFD644B84502DDBE
:101BB00046440CF1FF3C7345DBD16245D9D1002688
:101BC0000496A4EB0209009FB9F1000FB8BFC9F158
:101BD00000091F2C94BF00260126A242C9F100086B
:101BE0000396C0F02381002F40F05081002E40F07A
:101BF0004D814FF0FF360096E60803EBC61606440B
:101C0000002D00F01E814FF0010C04F007070CFAC4
:101C100007F796F810C047EA0C07377400260396BA
:101C2000A24200F03D81C44616461F4605927F2F12
:101C300015D81F2E13D84FEAD60E06F0070B4FF01B
:101C4000010A07EBCE1E8644002D00F0E6800AFA5A
:101C50000BFA9EF810B04AEA0B0A8EF810A0B8EB07
:101C60004C0F4FEA4C0E02DAACEB090C013FBEF10F
:101C7000000F01D0009A1644BB42D8D1B442D6D14D
:101C8000059AA1EB030EBEF1000FB8BFCEF1000E16
:101C90007F2994BF4FF0000A4FF0010A99428CBF90
:101CA0004FF001094FF0FF39BAF1000F13D1039E35
:101CB0008EB9E60801EBC6160644002D00F0D3806D
:101CC0004FF0010C04F007070CFA07F796F810C064
:101CD00047EA0C073774049E26BB774626467F2BBF
:101CE00014D81F2E12D84FEAD60C06F0070B4FF06F
:101CF000010803EBCC1C8444002D73D008FA0BF8C8
:101D00009CF810B048EA0B088CF810805FEA470C8A
:101D100018BF4B44E64501DD7744013E9942DED1D0
:101D2000B442DCD1A2EB040EBEF1000FB8BFCEF17D
:101D3000000EA2428CBF4FF001084FF0FF38CEF1E9
:101D4000000CBAF1000F0ED1029B63B9D30802F068
:101D50000707012601EBC3130344002D7CD0BE40CE
:101D60001F7C3E431E74019B002B7FF4CDAE664664
:101D70000B467F2B12D81F2C10D8E70804F0070A57
:101D80004FF0010903EBC7170744A5B309FA0AF995
:101D900097F810A049EA0A0987F81090BCEB460FA3
:101DA0004FEA460702DAA6EB0E06013B07B14444B0
:101DB0009942DED1A242DCD107B0BDE8F08F1F2AE4
:101DC0004FF0010A94BF002601267F2B029694BF94
:101DD000002701270097002E7FF4C8AE002F3FF4A4
:101DE000AEAEC3E608FA0BFB9CF8108028EA0B089D
:101DF0008CF810808AE709FA0AFA97F8109029EA15
:101E00000A0987F81090C9E709FA0BFB97F81090B8
:101E100029EA0B0987F81090C5E60AFA0BFB9EF831
:101E200010A02AEA0B0A8EF810A018E797BB8EBB09
:101E300001260096E60803EBC6160644002D7FF443
:101E4000E2AE012704F0070C039507FA0CFC377C7F
:101E500027EA0C073774E3E606FA07F71E7C26EA42
:101E600007061E747FE7012704F0070C07FA0CFC35
:101E7000377C27EA0C0737742DE707FA0CFC377C10
:101E8000029527EA0C07009537746CE64FF0FF3691
:101E90000096C5E601260096C5E60126049690E662
:101EA00001260196EDE600BF70B52B4E07EE900AB5
:101EB0002A4AF2EE080A3378F8EE677A126801339C
:101EC0009FED277A274C77EEC77A93FBF2F102FB5E
:101ED0001133254AC7EEA00ADDB233702DED028B17
:101EE0005055B0EE408AB0EE000A04EB850514F0C0
:101EF0002BFDDFED1E7A3378012120EE270A1C4AE4
:101F00001C48D15404EB830285ED000A03EB8305E2
:101F100092ED000A00EBC505284685ED020A14F093
:101F200099F99FED157A317844F24C00C8EE077AA2
:101F3000124B44F2200204EB810400FB01332068C1
:101F40001A440F4B85ED060A03EB81031060BDECCC
:101F5000028BC3ED007A70BD506902240C0000248E
:101F600000008A422C690224446902240000DC43F8
:101F700008690224C80700240000C8426C990024A4
:101F800014690224F8B50446084616460F46FEF7C3
:101F9000F7F904F108030546236000236360237208
:101FA00071680144204614F041FA6FF040436268C2
:101FB0009B1A9D420BD82A463946204614F0E6FA71
:101FC0002046D6E9001214F0E1FA2046F8BD014897
:101FD00014F059F9B48801082DE9F04F2DED028B6A
:101FE000A3B04FF400720021AB4815F0C5FBAB4A1B
:101FF000AB4916A8FFF7C6FF179A6FF040439A4205
:1020000000F020840122A74916A814F0BFFA0CABF7
:10201000054604460A9355F8083BAB4200F0F083AE
:1020200082680A930C920023626823720B922560E7
:102030001698636018AB984203D01899013114F0D8
:102040001AF90A9BDFF888B21A4619464FF00213B4
:10205000CBF80430944B92F800A01C785A785B6857
:1020600004920693BAF1000F76D08946AAF12003B4
:10207000DAB25E2A00F28283BBF804E00EEB0402BF
:10208000802A039200F37A83BBF806200499029217
:102090000A44202A00F37283002947D0049A6FF083
:1020A000004CCDF814A002FB03F3029D9C441344A2
:1020B000069A02EB4C0C023A02EB43039A463CF8B8
:1020C000026F6CB305F007030127EA0871469F40D1
:1020D0000EF110037FB203EBC21200236FEA070870
:1020E0005A440BE07F2904D81F2D02D810783843BA
:1020F0001070013301320131A34211D006FA03F00E
:102100000004EFD47F29F4D81F2DF2D810780133C2
:102110000132013108EA0000A34202F8010CEDD1BE
:10212000D44505F10105CAD1DDF814A0029ABDF825
:102130000C301F2A28BF1F227F2B28BF7F23ABF81C
:102140000620ABF8043099F80030534504D119F853
:1021500001AFBAF1000F89D1544B1C68092C40F231
:102160006783632C40F20D83B4F57A7FC0F05E8301
:1021700042F20F739C4240F24A83234601210BE056
:102180004B48824240F22F834A488242C0F0298362
:102190004948824240F229831A464848484D0E4633
:1021A000A0FB03030431AA424FEA5333E8D812AB31
:1021B00010A800220793109314F0D7F81199109EDD
:1021C000013940483144404B642225460239A3FB83
:1021D00004735B0902FB13421C4642F20F7300EBCF
:1021E000420C10F812709D429CF801204F708A70CA
:1021F000E9D8B5F57A7F80F0CE8230343470109B08
:102200001A460293314BCBF80430274B92F800A0CA
:102210001D785A785B6805920693BAF1000F00F0BA
:102220009380AAF12003DAB25E2A00F2C282BBF8E0
:1022300004E00EEB0502802A049200F3BA82BBF898
:102240000620059903920A44202A00F3B28200294D
:1022500062D0059A6FF0004C039C02FB03F39C4490
:102260001344069AA2F1020902EB4C0C09EB430954
:102270003CF8026F002D4BD004F007030127E20861
:1022800071469F400EF110037FB203EBC212002390
:102290006FEA07085A4429E0EC6602243C06002451
:1022A000CC880108D48801086000002408000024BC
:1022B0003F420F0080969800FFE0F5055917B7D10F
:1022C0009F860100448901081F85EB516A000200C6
:1022D000DC6602247F2904D81F2C02D810783843EA
:1022E00010700133013201319D4211D006FA03F022
:1022F0000004EFD47F29F4D81F2CF2D810780133D2
:102300000132013108EA00009D4202F8010CEDD1D2
:10231000E14504F10104ABD1039ABDF810301F2A46
:1023200028BF1F227F2B28BF7F23ABF80620ABF8E6
:102330000430029A1378534506D112F801AF029285
:10234000BAF1000F7FF46DAFAA4B1CA89FEDAA7ADB
:10235000D3ED007AA94A67EE877AA949BDEEE78AEC
:10236000FFF710FE1D9A6FF040439A4200F06A8218
:102370000122A4491CA814F009F918AB054604462B
:10238000169355F8083BAB4200F0338216938368EE
:102390001893636817930023256023721C98636069
:1023A0001EAB984203D01E99013113F064FF169BB7
:1023B0001A460293944BCBF80430944B92F800A049
:1023C0001D785A785B6805920693BAF1000F72D0B7
:1023D000AAF12003DAB25E2A00F2E881BBF804E039
:1023E0000EEB0502802A049200F3E081BBF8062080
:1023F000059903920A44202A00F3D881002943D08A
:10240000059A6FF0004C039C02FB03F39C441344B9
:10241000069AA2F1020902EB4C0C09EB43093CF8C5
:10242000026F6DB304F007030127E20871469F4075
:102430000EF110037FB203EBC21200236FEA07080C
:102440005A440BE07F2904D81F2C02D81078384357
:1024500010700133013201319D4211D006FA03F0B0
:102460000004EFD47F29F4D81F2CF2D81078013360
:102470000132013108EA00009D4202F8010CEDD161
:10248000E14504F10104CAD1039ABDF810301F2AB6
:1024900028BF1F227F2B28BF7F23ABF80620ABF875
:1024A0000430029A1378534505D112F801AF029215
:1024B000BAF1000F8CD118EE104A092C40F2A98114
:1024C000632C40F27981B4F57A7FC0F0AB8142F29F
:1024D0000F739C4240F2A88118EE103A01210BE0E4
:1024E0004B48824240F27B814A488242C0F075816B
:1024F0004948824240F27B811A464848484D0E4680
:10250000A0FB03030431AA424FEA5333E8D81EABC1
:102510001CA800221C9313F028FF1D991C9E013952
:1025200040483144404B642225460239A3FB0473E2
:102530005B0902FB13421C4642F20F7300EB420799
:1025400010F812209D424A707A788A70EAD8B5F560
:102550007A7F80F03A81303434701C9B1A460293A3
:10256000324BCBF80430294B92F800A01D785A78F2
:102570005B6805920693BAF1000F00F09380AAF110
:102580002003DAB25E2A00F20E81BBF804E00EEB03
:102590000502802A049200F30681BBF80620059903
:1025A00003920A44202A00F3FE80002962D0059A93
:1025B0006FF0004C039C02FB03F39C441344069A07
:1025C000A2F1020902EB4C0C09EB43093CF8026F43
:1025D000002D4BD004F007030127E20871469F400D
:1025E0000EF110037FB203EBC21200236FEA07085B
:1025F0005A4429E05C6902240000C84254060024C1
:10260000D8880108D4880108020011006000002465
:102610003F420F0080969800FFE0F5055917B7D1AB
:102620009F860100448901081F85EB516A00110053
:102630007F2904D81F2C02D810783843107001333A
:1026400001320131AB4211D006FA03F00004EFD49D
:102650007F29F4D81F2CF2D81078013301320131D0
:1026600008EA0000AB4202F8010CEDD1E14504F1AB
:102670000104ABD1039ABDF810301F2A28BF1F22D6
:102680007F2B28BF7F23ABF80620ABF80430029ADB
:102690001378534506D112F801AF0292BAF1000F38
:1026A0007FF46DAF694CB02504F500784FF47A776C
:1026B0000026022309AA9BF80C10654800978DF8A4
:1026C00024608DF8255003F027F9022309AA9BF80E
:1026D0000C105F4800978DF824608DF8256003F09A
:1026E0001BF9102202239BF80C108DF8252009AA53
:1026F000574800978DF82460A4F1800603F00CF988
:1027000016F8012F4FF47A734021514800930223A9
:102710008DF824108DF8252009AA9BF80C1003F0E1
:10272000FBF8A642ECD106F180040135A045EDB2DC
:10273000BCD11C981EAB984203D01E99013113F0F6
:102740009AFD169818AB984203D01899013113F0EE
:1027500092FD1098079B984203D01299013113F013
:102760008AFD0A980CAB984203D00C99013113F002
:1027700082FD23B0BDEC028BBDE8F08F4FF0000A64
:10278000E1E412AB10A8002202210793109313F08A
:10279000ECFD109E2F4800EB440310F814205B78EA
:1027A000327073702BE54FF0000A70E74FF0000AAB
:1027B00077E64FF0000ABCE51EAB1CA80022022100
:1027C0001C9313F0D2FD1C9E224800EB440310F82A
:1027D00014205B7832707370BFE6B11D97E6711DEF
:1027E00095E6B11DE3E4711DE1E4F11DDFE4F11DA7
:1027F0008DE618AE80686968AA68EB680FC6C8E500
:102800000CAE80686968AA68EB680FC60BE4042107
:10281000CDE41EAB1CA8002201211C9313F0A5FDE2
:102820001C9E98E6032172E6042170E60321BEE4B3
:1028300012AB0022012110A80793109313F095FD0D
:10284000109EDAE4044813F01EFD00BF6B670224FB
:10285000E466022444890108B4880108012810B5FF
:1028600082B004D002283ED020B302B010BD2B4B62
:102870001C68002C11DD002229491346013344F263
:102880004C0E44F244004FF0010CDBB20EFB02127E
:10289000A34202F800C01A46F0DB22480324224B70
:1028A00042680021009413F0F3FD02B0BDE810402F
:1028B000FFF792BB194B1C68002C10DD034618492A
:1028C000013344F24C0E44F244024FF0000CDBB2F0
:1028D0000EFB0010A34200F802C01846F0DB1148BE
:1028E0000824124BDCE70D4B1C68002C11DD002284
:1028F0000B491346013344F24C0E44F244004FF0AE
:10290000020CDBB20EFB0212A34202F800C01A4610
:10291000F0DB04480624064BC2E700BF0C0000248D
:102920006C9900243C060024EC880108E08801082A
:10293000F088010810B582B0042875D8DFE800F0EF
:1029400018412C560300394B1C68002C0CDD00216B
:10295000374A0B46013301EB81010420DBB202F858
:102960003100A3421946F5DB32480624324B51E0D0
:102970002E4B1C68002C0BDD00232D4A013300EB8D
:1029800080000021DBB202F83010A3421846F5DBCC
:1029900028480424294B3DE0244B1C68002C0CDD06
:1029A0000021234A0B46013301EB81010220DBB2F7
:1029B00002F83100A3421946F5DB1E480324204BE0
:1029C00028E01A4B1C68002C0CDD0021184A0B462D
:1029D000013301EB81010120DBB202F83100A34297
:1029E0001946F5DB13480824164B13E00F4B1C68FF
:1029F000002C0CDD00210E4A0B46013301EB810156
:102A00000320DBB202F83100A3421946F5DB094886
:102A100004240D4B42680021009413F039FD02B0EC
:102A2000BDE81040FFF7D8BA02B010BD0C0000247A
:102A3000C807002454060024F0880108F88801081B
:102A4000EC880108E08801080089010884B0F0B52D
:102A500085B004464FF47A760BAD85E80E009DF8FC
:102A6000403029460025037102F0C0FEAE2303AAC0
:102A700000968DF80D302046217902238DF80C50F8
:102A800002F04AFFD52303AA0096204621798DF84B
:102A90000D3002238DF80C5002F03EFF802303AA74
:102AA0000096204621798DF80D3002238DF80C50C8
:102AB00002F032FFA82303AA0096204621798DF860
:102AC0000D3002238DF80C5002F026FF1F2303AABD
:102AD0000096204621798DF80D3002238DF80C5098
:102AE00002F01AFFDA2303AA009620468DF80D3073
:102AF000022321791F468DF80C5002F00DFF03AA26
:102B00003B460096204621798DF80C508DF80D70CB
:102B100002F002FFD32303AA0096204621798DF804
:102B20000D303B468DF80C5002F0F6FE3B4603AAF2
:102B30000096204621798DF80C508DF80D5002F04A
:102B4000EBFE402303AA0096204621798DF80D3034
:102B50003B468DF80C5002F0DFFEA62303AA009638
:102B6000204621798DF80D303B468DF80C5002F04F
:102B7000D3FEA42303AA0096204621798DF80D30B8
:102B80003B468DF80C5002F0C7FE8D2303AA009639
:102B9000204621798DF80D303B468DF80C5002F01F
:102BA000BBFE142303AA0096204621798DF80D3030
:102BB0003B468DF80C5002F0AFFEA12303AA00960D
:102BC000204621798DF80D303B468DF80C5002F0EF
:102BD000A3FEC82303AA0096204621798DF80D3064
:102BE0003B468DF80C5002F097FE812303AA009615
:102BF000204621798DF80D303B468DF80C5002F0BF
:102C00008BFE8F2303AA0096204621798DF80D3084
:102C10003B468DF80C5002F07FFED92303AA0096A4
:102C2000204621798DF80D303B468DF80C5002F08E
:102C300073FE252303AA0096204621798DF80D30D6
:102C40003B468DF80C5002F067FEDB2303AA00968A
:102C5000204621798DF80D303B468DF80C5002F05E
:102C60005BFE342303AA0096204621798DF80D30AF
:102C70003B468DF80C5002F04FFE00963B46217902
:102C800003AA2046AF248DF80C508DF80D4002F0B9
:102C900043FE05B0BDE8F04004B070472DE9F041B7
:102CA00000F51044C8B0054694F8AC3019420379D9
:102CB00018D0032B1CD00022027194F8B0300B40C6
:102CC000C36094F8AD300B401B09092B037206D882
:102CD0000120072B287184F8A43000F0E88048B068
:102CE000BDE8F081032BFAD8DFE803F08D1158021C
:102CF000F72900F0C38095F9922095F89230002AC8
:102D0000EDDBEA180133917485F89230E7E794F827
:102D1000AE8001EA080885F8108094F8A4703B1F83
:102D2000012B06D995F8933003F0FD03012B40F0F9
:102D3000BB8000236E46902205F1080130462B71BE
:102D400014F0F2FCD4F89830D4F89C20013B9B1A84
:102D5000DBB2002BF6D0902231460DEB020014F0CE
:102D6000E3FCD4F89C6024A9902206EBC60001364F
:102D700005EB0010F6B2983014F0D6FCC4F89C6055
:102D8000B8F1770FABD9032FA9D10923A8F17801A6
:102D90002B7284F8A43085F89510A0E794F8AE3033
:102DA0001940697494F8A430012B02D1002900F075
:102DB0008C806E46902205F10801304614F0B4FC78
:102DC000D4F89830D4F89C20013B9B1ADBB2002B3E
:102DD000F6D0902231460DEB020014F0A5FCD4F899
:102DE0009C6024A9902206EBC600013605EB00107A
:102DF000F6B2983014F098FC0023C4F89C602B7154
:102E000048B0BDE8F08194F8A4302B72043B94F8EC
:102E1000AE20012B01EA0201297405D995F89330FF
:102E200003F0FD03012B3CD100236E46902205F1F7
:102E3000080130462B7114F077FCD4F89830D4F8A0
:102E40009C20013B9B1ADBB2002BF6D0902231462E
:102E50000DEB020014F068FCD4F89C6024A99022C9
:102E600006EBC600013605EB0010F6B2983014F000
:102E70005BFCC4F89C6048B0BDE8F08100236E465E
:102E8000902205F1080130462B7114F04DFCD4F866
:102E90009830D4F89C20013B9B1ADBB2002BF6D073
:102EA000D4E702232B711AE702232B7168E711F094
:102EB0000800EA6036D101F0070385F893303BB98A
:102EC000032285F892302A7109E700232B7270E7FC
:102ED0004B077FF504AF6E462871902205F108017B
:102EE000304614F021FCD4F89830D4F89C20013BF3
:102EF0009B1ADBB2002BF6D0902231460DEB02007C
:102F000014F012FCD4F89C6024A9902206EBC600B1
:102F100005EB0010983014F007FC731CDBB2C4F80A
:102F20009C30DCE608236E462B72304684F8A430D1
:102F300094F8B2302A719022194085F8941005F166
:102F4000080114F0F1FBD4F89830D4F89C20013B30
:102F50009B1ADBB2002BF6D0CEE700BF00000000CA
:102F60002DE9F04FB448DFF82CA3DFF82C830AF5E5
:102F70001044DFF828932DED048BBDB000F012FC57
:102F80000021AD480D4600F09FFC0421AA4800F046
:102F900013FCA94800F00CFC294604F1A80084F8B1
:102FA000A550B0EE408A01F027FE0A23F7EE007A22
:102FB000C4F89C508AF80830A04B8AF804501B686B
:102FC000C4F89850AB42C8ED007AC9ED007A40F3DE
:102FD000EA82C7EE889A2B46DFF8C4B22F4607EB89
:102FE0008702974E4FF07C519FED960A06EBC20583
:102FF00005930492B5EE009A69600021284685ED9C
:10300000038A6961C5ED049A85ED020A13F022F97D
:103010000021049A2846DFED8C8A06F8321040F22F
:10302000011285ED060AB0EE680AAA8485ED019AC0
:10303000C5ED028A13F00EF9F0EE407A0121B0EEF0
:10304000480AC5ED067A07EB47050BEB0515284640
:1030500011F0A4FC012199ED000A284611F00EFDA3
:10306000B0EE490A0221284611F008FD042198ED2E
:10307000000A284611F002FD744A754BB0EE480A6A
:103080002A6044F24C0202FB0737384612F052FD28
:1030900044F244020221059B6E48B95444F22001D7
:1030A000013344F224023944DBB23A44C1ED008AD0
:1030B00062491F46106009688B4290DBB0EE480AF7
:1030C000654812F009FB644A644BB0EE480A644854
:1030D000002793604FF00106624B634D536011F07F
:1030E000ADFDDFED620A9FED620A5D4811F0C8FF99
:1030F000F7EE000A5A48B0EE600A11F0A1FFDFEDCA
:103100005D0AB6EE080A564811F0F8FFB0EE480A1C
:10311000284612F0B1F81023574A8DF854303C235A
:103120001292564A8DF8583014AB2A60544A1497BC
:103130006A6011971397534D93E8070011AB8DE820
:10314000070051480ECBFFF781FC50493A4800F088
:103150002BFB4FF002038DF81D7011A88DF81C3069
:10316000079901F0C9FD03238DF820700DF155007A
:103170008DF82130089901F0BFFD8DF824608DF89D
:1031800025600DF16600099901F0B6FD07238DF861
:1031900028700DF177008DF829300A9901F0ACFD07
:1031A00006238DF82C7022A88DF82D300B9901F094
:1031B000A3FD4FF002038DF831600DF199008DF8F9
:1031C00030300C9901F098FD4FF002030DF1AA0088
:1031D0008DF834304FF004038DF835300D9901F03F
:1031E0008BFD05238DF838700DF1BB008DF839305B
:1031F0000E9901F081FD4FF004038DF83C7033A867
:103200008DF83D300F9901F077FD8DF840708DF805
:1032100041600DF1DD00109901F06EFD1C480423A2
:1032200011A90A2201F076FD194801F057FF03F0B9
:10323000C5FA07463EE000BF6C0600240C000024DF
:10324000C80700240000C8420000DC430000203F03
:103250006C9900246666A63E341B022400005C4480
:10326000801B02243333333F000000C0CDCC4C3EE2
:10327000C3F5A83E6666663F010801093333733F14
:1032800000007A4644690224E4660224890A0008A0
:1032900084060024B808002410690224FC68022473
:1032A000A8060024C4F8A07001F0DCFC0146C44864
:1032B000FFF7F4FCC34801F0CBFC0346C148002BE8
:1032C000F0D1C04801F0E2FC002800F06381D4F89E
:1032D0009C30D4F898209B1ADBB2002B34D0D4F861
:1032E0009C30D4F898209B1ADBB2002BF7D0D4F88E
:1032F000983003EBC30101330901DAB2B24B0AEB98
:1033000001075B5C97F8A000C4F8982097F8A1200B
:1033100053B1012BDBD1002AD9D007EE902AB8EEA9
:10332000670AFEF7C1FDD2E7A84A1768002FCEDD75
:10333000E95C5A1C814203D10021A54EE954F154A5
:10334000D3B29F42F4DCC2E70121A24801F0DCFEC7
:103350009FEDA17AA14B0121F0EE477ADFEDA06A43
:103360009C489FEDA08AE0EE267ADFED9F6AC7FEBB
:10337000877AC7FEE67AC3ED027A01F0C5FEB7EEA2
:10338000C00A9A4A022193489FED897BB4EEC70B8D
:10339000F1EE10FACCBF01230023137001F0B4FE4C
:1033A000F0EE487A9FED927A03218A48E0EE077AA0
:1033B000B0EE007AC7FE887AC7FEC77AC9ED007AF8
:1033C00001F0A2FE814BF0EE487A9FED8A7A1B68ED
:1033D000E0EE077A002BB0EE087AC7FE887AC7FEC7
:1033E000C77AC8ED007A18DD0020074600EB4000E0
:1033F00099ED000A012101370BEB0010FFB2049098
:1034000011F03CFB0498042198ED000A11F036FB02
:103410006E4B38461B689F42E8DB00216D4801F087
:1034200073FEB7EE007A9FED748A0421734B70EE41
:10343000087A6848C7FE887AC7FEC77A37EEC77A27
:10344000C3ED007A6E4BF1EE477AC3ED007A01F0DE
:103450005BFEF0EE487A9FED6B7A6B4B6B4AE0EEC9
:10346000077A1B68C7FE887AC7FEC77AFDEEE77A3F
:1034700017EE900AC2ED007A984204D0624BC3ED79
:10348000007AFFF7EBF90521524801F03DFEDFED30
:103490005A6A9FED5F7AF0EE667A5E4A5E4913687B
:1034A000E0EE077AC7FEA67AC7FEC77AFDEEE77A96
:1034B00017EE900AC1ED007A984203D0C2ED007A6F
:1034C000FFF738FA0621434801F01EFEDFED4A6A95
:1034D0009FED527AB7EE006A70EE267A5049C7FE29
:1034E000A67AC7FEC67A27EE877A0A684D4EBDEEE9
:1034F000C77AC6ED007A17EE103A934205D081EDF7
:10350000007AFEF769FDD6ED007AF7EE008A464BA9
:10351000072130489FED388A77EEE87A434EF1EE86
:10352000677AC3ED007A01F0EFFD414B082129488D
:1035300070EE087AC7FE887AC7FEE87AC3ED007A93
:1035400001F0E2FD0921234870EE087AC7FE887A6F
:10355000C7FEE87AC6ED007A01F0D6FD30EE080A23
:10356000344B80FE080A9FED146B80FE680AB7EEAC
:10357000C07A314883ED000A27EE067BF7EEC70BD1
:1035800011F07EFDD6ED000A2B48B0EE600A11F076
:1035900057FD4CE68AF804000A4801F07BFB094815
:1035A00001F052FB93E6DFF894B087E5AFF30080BB
:1035B0005C8FC2F5285CEF3FCDCCCCCCCCCCEC3FC3
:1035C000B808002460990024500900240C0000244D
:1035D000086902248406002400004842341B0224A7
:1035E0000070F845CDCCCC3D0000FA45F0680224CF
:1035F0003333F33F9A993940000000006069022498
:10360000EC6802243333134054690224F468022422
:1036100066668E4058690224F86802240000C84299
:10362000080000244C6902245C6902240069022419
:103630000400002404690224801B0224A80600243C
:103640003E484FF60F013E4A38B500F510430024BE
:10365000C3E92A420722A3F8B010046083F8B2201D
:103660003849394A12F002FE3848374A384904606E
:103670004461046212F0FAFD334A3649364812F0CA
:10368000F5FD364B03F590703033002234490024A9
:10369000834243F8302C43F82C2C43F8281C43F881
:1036A000242C43F8201C43F81C1C43F8181C43F836
:1036B000142C43F8102C43F80C2C03F8044C03F89A
:1036C000034CE1D1204A2046264912F0CFFD1E4A84
:1036D0002549204612F0CAFD1B4A2449244812F00D
:1036E000C5FD194A2349204612F0C0FD164A224959
:1036F000224812F0BBFD224B2248234D0360124AA0
:103700002249846012F0B2FD214C22492846FDF77F
:10371000B3FA0D4A2049284612F0A8FD1D4920465B
:10372000FDF7AAFA084A1C49204612F09FFD1B49E2
:1037300028681B4B226808601A6038BDB80800244E
:1037400080707FF0850A0008000000246C060024C9
:10375000610A0008550A0008801B0224A8060024FC
:10376000000080BF750A0008D10C00085D0A00083F
:10377000341B0224D50C0008590A0008000000C0C0
:1037800010890108DC6602243C060024790A00083E
:1037900054060024C888010821640108781B02240B
:1037A0007C1B0224704700BF143001F0ADB900BF8C
:1037B000143001F0A5B900BF38B500F11405044676
:1037C0002DED028B284601F08DF9284601F098F97D
:1037D0002846B0EE408A01F081F9D0ED007AF8EE8B
:1037E000677A88EE277ABDEC028B84ED0E7A38BDBD
:1037F000253001F07BBE00BFF0B5032399B0002750
:103800000125129306462C4B09A81595CDE90E7398
:1038100040F20453ADF84030284BCDE913570993DB
:1038200001F07AFD09A801F053FE002836D1244B9F
:1038300004AF04460090CDF8423010233946049579
:103840008DF820301F4BCDE91650CDE90650684663
:10385000059301F0CBFF0823009A01A909A8ADF850
:1038600004508DF8064009940295039300F0E4F8A3
:1038700000230EA938463024049302F081FD032270
:103880004FF07E5309A906F114000B930C93CDE978
:103890000942049A01F0EAF819B0F0BD40F601328D
:1038A000074B169704AFADF824200998CDF84230A5
:1038B000179500F081F8DBE704020404030300011C
:1038C000040604030704010B2DE9F04304462DED23
:1038D000028B83B0002948D0012140F2011200235D
:1038E0000091ADF804208DF80630304A0126304BA7
:1038F000271D304904F12908626040F20272A3607A
:1039000040F60663E16004F125092682A4F825202B
:1039100084F82760A4F8293084F82B6003F0BEF8FF
:103920006946054648B304F130008DF8066003F09F
:1039300013F8072D34D104F114052046FFF75CFF7E
:10394000284601F0DDF82846B0EE408A01F0C6F8BE
:10395000D0ED007AF8EE677A88EE277A84ED0E7A59
:1039600003B0BDEC028BBDE8F08340F2011300917F
:103970008DF80610ADF80430B7E704F1300002F01E
:10398000EBFF3946204602F07BF9484601F0C4FCC3
:10399000404601F0C1FC04F1120000F077F9CAE7DB
:1039A0003946204602F06CF9C5E700BF0508050955
:1039B00005070506050A060610B584B0034601246E
:1039C000ADF8040003A8ADF80C30ADF80E4001F0DE
:1039D000A3FC214603A801F089FD204602F0F0FE79
:1039E000002103A801F082FD204602F0E9FE2146F5
:1039F00003A801F07BFD04B010BD00BF10B5C2F3F9
:103A0000002384B00C46017C8DF80D2043EA44026B
:103A1000FA2402238DF80C2003AA009401F07CFF05
:103A200018B10124204604B010BD04460A2002F05B
:103A3000C7FE204604B010BD034670B543F8042B02
:103A4000044684B007C983E80700A37983B91A2123
:103A50000B461E22FA2523742046ADF80C200223C3
:103A600003AA009501F058FF28B1012004B070BDF1
:103A70001B210B46EDE70A2002F0A2FE4FF4B852DC
:103A800000950223ADF80C20204603AA217C01F00A
:103A900043FF0028E9D10A2002F092FE41F20272AF
:103AA00000950223ADF80C20204603AA217C01F0EA
:103AB00033FF0028D9D10A2002F082FE04220095AB
:103AC0000223ADF80C20204603AA217C01F024FF3C
:103AD0000028CAD10A2002F073FE062200950223B4
:103AE000ADF80C20204603AA217C01F015FF002828
:103AF000BBD10A2002F064FE41F2082200950223A5
:103B0000ADF80C20204603AA217C01F005FF002817
:103B1000ABD10A20064602F053FE0095022303AA09
:103B2000217C2046ADF80C6001F0F6FE00289CD107
:103B3000304602F045FE009522790C232046002AEB
:103B40008DF80C3003AA4FF0020314BF622142210A
:103B50008DF80D10217C01F0DFFE002885D1304664
:103B600002F02EFE2279D4E902310B43DBB20AB90E
:103B700043F0400362790AB143F020030E22FA2594
:103B80008DF80D302046009502238DF80C2003AAF5
:103B9000217C01F0C1FE00287FF467AF0A2002F00B
:103BA0000FFE102200950223ADF80C20204603AA38
:103BB000217C01F0B1FE00287FF457AF0A2002F00B
:103BC000FFFD122100950223ADF80C1003AA217C01
:103BD000204601F0A1FE00287FF447AF0A2002F042
:103BE000EFFD012209212046FFF708FF003818BF2A
:103BF00001203BE7F0B5102387B0234C01220025BC
:103C00000126002702A920460195CDE902234FF4A1
:103C10008052CDE9046709F06DFF642003F018FBC2
:103C200002A94FF480522046CDE9046702261027EE
:103C3000CDE9026709F05EFF0322102302A92046A6
:103C4000CDE9022300230422CDE904234FF480525E
:103C500009F050FF40F23223042202A901931023FD
:103C60002046CDE90223019A012305924FF48052A8
:103C7000049309F03FFF40F60601204609F05AFF81
:103C8000284607B0F0BD00BF6C6902241C4B00221F
:103C90001C494FF0400C30B5054689B002205960F0
:103CA00007219A601A620124DA620A224FF4006E38
:103CB000DC6006922022CDE9000104200821CDE934
:103CC000020103201021CDE9040108206946C3E95F
:103CD00004024FF4C072181DC3E906C24FF48052AB
:103CE000C3E909E209F0DCFE38B92846FFF782FF94
:103CF000003818BF012009B030BD204609B030BDE2
:103D00006869022440410052614A0021D0B513681D
:103D10008EB00A91002B40F0B9805E4B01214FF626
:103D200083700C2411600221D3F8D42000260327CD
:103D300042F48052C3F8D420D3F8D42002F4805245
:103D40000092009AD3F8E02042F01002C3F8E0207D
:103D5000D3F8E02002F010020192019AD3F8E0209B
:103D600042F04002C3F8E020D3F8E02002F0400225
:103D70000292029AD3F8E02042F00802C3F8E02051
:103D8000D3F8E02002F008020392039AD3F8E0206F
:103D900042F48072C3F8E020D3F8E02002F480728D
:103DA0000492049AD3F8E02042F08002C3F8E020A5
:103DB000D3F8E02002F080020592059AD3F8E020C3
:103DC00042F02002C3F8E020D3F8E02002F0200205
:103DD0000692069AD3F8E02042F00402C3F8E020ED
:103DE000D3F8E0300C9403F0040307930323079AFD
:103DF0000B93CDE9080108A9274805F0AFF848F270
:103E00003712022308A925480C94CDE90823CDE9EF
:103E10000A6705F0A3F84CF20372022308A92048B0
:103E20000C94CDE90823CDE90A6705F097F840F234
:103E3000FF62022308A91B480C94CDE90823CDE9B1
:103E40000A6705F08BF84FF60C72022308A9164892
:103E50000C94CDE90823CDE90A6705F07FF84FF609
:103E60003F02022308A911480C94CDE90823CDE9AB
:103E70000A6705F073F82022022308A90A480C9467
:103E8000CDE90A67CDE9082305F068F80EB0D0BD8A
:103E900064690224004402580010025800180258B5
:103EA000000C025800200258001C0258001402584E
:103EB0002DE9F04FDFF8108406460D46144608F150
:103EC00018002DED028B89B000AF02F051FBD8F83D
:103ED000183073B3D8F81C30D8F80490002B43691D
:103EE0000BBF4FF0080A4FF0100A4FF0020B4FF0D3
:103EF000040BB9F1000F2AD0A200EA46012B02F10F
:103F0000070222F00702ADEB020D6846ADEB020D91
:103F1000694600F03F81022B00F0D680002B6FD065
:103F20002246C847D5462437BD46BDEC028BBDE8C6
:103F3000F08FD8F81C30002BF5D0D8F804904FF053
:103F4000080A4FF0020B4369B9F1000FD4D1FB61AD
:103F5000D8F80030BB61002BE5D0D54802F07AFBE1
:103F60006B46BBF1020F786108EE103AFB6900F076
:103F700083816A465146A2EBC40295466200EA4636
:103F8000B2FBFBF2AAEBC40085460AEB8200EE46C8
:103F9000F861ADEB010DF8690EEB820CC7F810C0AB
:103FA000EC46ADEB010D00EB8201CCF80400CCF83F
:103FB000081001EB82013869E946CCF80C1000EBDF
:103FC0008201CCF800A001EB8202C9E900E0C9E956
:103FD0000212012B00F06483022B00F06C82002B94
:103FE00000F08081620849466046BB69984718EE38
:103FF000103A24379D46BD46BDEC028BBDE8F08FDC
:10400000002C8DD01A46D8ED0C6A9FEDB27A84460A
:10401000331D36F922E00CF1080C07EE90EA33F973
:1040200022E00232F8EEE77A944267EE877A67EE92
:10403000A67A4CED027A07EE90EAF8EEE77A67EEA0
:10404000877A67EEA67A4CED017AE2D8F9612246CA
:10405000C847984ED8ED0D6A0020F9692B1D9FEDD9
:104060009E7A9FED9E6ADFED9E5A22E0F4EEC67ABC
:10407000F1EE10FAC0F2C88447F6FE72D1ED017A73
:1040800045F8202066EEA77AF4EEC77AF1EE10FA32
:1040900040F2F080F4EEC67AF1EE10FAC0F2D58468
:1040A00047F6FE7243F820200230083184427FF642
:1040B00039AFD1ED007A66EEA77AF4EEC77AF1EE69
:1040C00010FAD3D83246D9E7002C3FF429AFD8ED07
:1040D0000C6A84469FED787A0022331D8E4656F88E
:1040E00022100CF1080C07EE901A53F8221002323D
:1040F000F8EEE77A944267EE877A67EEA67A4CED9F
:10410000027A07EE901AF8EEE77A67EE877A67EEA2
:10411000A67A4CED017AE2D871462246C7F81CE037
:10412000C847664ED8ED0D6A0020F9692B1D9FED3A
:104130006A7A9FED6A6ADFF894C120E0F4EEC67AED
:10414000F1EE10FAC0F279843246D1ED017A45F8E9
:10415000202066EEA77AF4EEC77AF1EE10FA40F26C
:104160008780F4EEC67AF1EE10FAC0F25E84324631
:1041700043F820200230083184427FF6D3AED1EDDF
:10418000007A66EEA77AF4EEC77AF1EE10FAD5D887
:104190006246DAE7002C3FF4C3AED8ED0C6A8646DF
:1041A0009FED477A4FF0000C331D56F82C200EF18E
:1041B000080E82F40002A2F5000207EE902A53F8DE
:1041C0002C200CF1020CF8EEE77A82F40002644530
:1041D000A2F5000267EE877A67EEA67A4EED027AC4
:1041E00007EE902AF8EEE77A67EE877A67EEA67A0E
:1041F0004EED017AD9D8F9612246C847314ED8ED43
:104200000D6A0020F9692B1D9FED337A9FED336A0B
:10421000DFF8BCC01FE0F4EEC67AF1EE10FAC0F28F
:10422000FC833246D1ED017A45F8202066EEA77A6C
:10423000F4EEC77AF1EE10FA18D9F4EEC67AF1EE80
:1042400010FAC0F2DA83324643F8202002300831F7
:1042500084427FF667AED1ED007A66EEA77AF4EE7F
:10426000C77AF1EE10FAD6D86246DBE76246EBE792
:1042700062467DE7324615E7A100D646620807315F
:1042800021F00701ADEB010DEA46ADEB010D6946EA
:10429000ADEB0E0D0AEB8200EC46ADEB0E0D01EB23
:1042A0008202F861E946CCE900A0C9E9001290E673
:1042B000BC6902240280FFFF000000300082FF7F03
:1042C0000000003482FF7F00A0690224007E00808D
:1042D0007E0080FF0000003804FF7FBF04FF7F3FA7
:1042E00000FEFF46002C00F0C982BBF1020FD8F897
:1042F000242000F0FA827969C7F8049002EB810E5D
:104300005FED0C5A8A00DCF808100EF104007A61A7
:104310001A46DCF80C303B61331DD7F810903D6134
:10432000FD69C7E902CB8C46834636F92210D8EDE9
:104330000C7A06EE101A33F9221006EE901A3EF9A6
:104340002210B8EEC66A07EE101AF8EEE66A3BF9DC
:104350002210B8EEC77A26EE256A66EEA56A27EE29
:10436000257A26EE276A66EEA76A27EE277A07EEF9
:10437000901A51080232F8EEE77A0AEB8100944273
:1043800080ED006A05EB810067EEA57AC0ED006A5A
:104390000CEB810009EB810180ED007A98ED0C7A3D
:1043A00067EE877AC1ED007ABFD8D7F804903D69EF
:1043B000D7E902CB60466208BB6949469847D8F8FE
:1043C0002C307A69D8ED0D6A1A441FED3D7A1FED45
:1043D0003D6A2B1D904602F1040A5FED3F5A002210
:1043E000A84ED9E900EC51E0F4EEC67AF1EE10FAED
:1043F000C0F2C78247F6FE7045F822000CEB0100C0
:10440000D0ED007A66EEA77AF4EEC77AF1EE10FAF4
:104410004BD9F4EEC67AF1EE10FAC0F2BA8247F642
:10442000FE70BBF1020F43F822002BD0D9F8080030
:104430000844D0ED007A66EEA77AF4EEC77AF1EE82
:1044400010FA36D9F4EEC67AF1EE10FAC0F2CD8247
:1044500047F6FE7048F82200D9F80C000144D1ED6F
:10446000007A66EEA77AF4EEC77AF1EE10FA1ED95A
:10447000F4EEC67AF1EE10FAC0F2AF8247F6FE71A2
:104480004AF82210023294427FF6B1AD51080EEB89
:1044900081008900D0ED007A66EEA77AF4EEC77A43
:1044A000F1EE10FAA0D83046A6E73046B9E731461B
:1044B000E6E73046CEE7002C00F0E081BBF1020FCA
:1044C000D8F8243000F0E1817A69DCF8081003EBB9
:1044D000820EC7F804909300DFED6B5A0EF10400D2
:1044E00000227B61DCF80C303B61331DD7F8109063
:1044F0003D61FD69C7E902CB8C46834656F8221020
:10450000D8ED0C7A07EE101A53F82210B8EEC76AED
:1045100007EE101A5EF82210F8EEC76A07EE101ABE
:1045200026EE256A5BF82210B8EEC77A66EEA56A19
:1045300026EE276A27EE257A66EEA76A27EE277A07
:1045400007EE901A51080232F8EEE77A0AEB810082
:10455000944280ED006A05EB810067EEA57AC0ED1C
:10456000006A0CEB810009EB810180ED007A98ED87
:104570000C7A67EE877AC1ED007ABFD8D7F804903D
:104580003D69D7E902CB60466208BB694946984756
:10459000D8F82C307A69D8ED0D6A1A449FED3E7A2E
:1045A0009FED3E6A131D9246DFF8E4C00022FB61D6
:1045B0002B1D364ED9E9008E4EE0F4EEC67AF1EEB0
:1045C00010FAC0F2FC81304645F822000EEB0100E3
:1045D000D0ED007A66EEA77AF4EEC77AF1EE10FA23
:1045E00049D9F4EEC67AF1EE10FAC0F2EF81304606
:1045F000BBF1020F43F822002AD0D9F80800084482
:10460000D0ED007A66EEA77AF4EEC77AF1EE10FAF2
:1046100035D9F4EEC67AF1EE10FAC0F2C98130460F
:104620004AF82200D9F80C000144D1ED007A66EE78
:10463000A77AF4EEC77AF1EE10FA1ED9F4EEC67A34
:10464000F1EE10FAC0F2AD813146F86940F822105F
:10465000023294427FF6CBAC510808EB810089000E
:10466000D0ED007A66EEA77AF4EEC77AF1EE10FA92
:10467000A3D86046A8E76046BAE76146E5E760462A
:10468000CEE700BF0280FFFF000000300082FF7F06
:10469000007E00800000003404FF7FBF04FF7F3FE6
:1046A000002C00F0EB807A690021D8F82430C7F89C
:1046B000109003EB820ED7F81C909300FD610EF171
:1046C00004021FED0C6A7B61331D154656F821204C
:1046D0004808D8ED0C6ABBF1020F82F40002A2F583
:1046E000000207EE902A53F8212082F40002B8EE6F
:1046F000E77AA2F5000227EE067A07EE902A0AEB87
:104700008002F8EEE77A27EE267A67EE867A82ED67
:10471000007A09EB80024FEA800067EEA67AC2EDCC
:10472000007A27D05EF8212082F40002A2F5000270
:1047300007EE902A55F8212082F40002B8EEE77ABD
:10474000A2F5000227EE067A07EE902ADCF8082090
:10475000F8EEE77A024427EE267A67EE867A82ED53
:10476000007A98ED0C7ADCF80C2067EE877A024428
:10477000C2ED007A02318C42A8D8D7F8109060467A
:104780006208BB694946FD699847D8F82C307A69B8
:10479000D8ED0D6A1A441FED407A1FED406A131DD3
:1047A0009246DFF8C4C20022FB612B1DAB4ED9E953
:1047B000008E4EE0F4EEC67AF1EE10FAC0F2C5803B
:1047C000304645F822000EEB0100D0ED007A66EE8F
:1047D000A77AF4EEC77AF1EE10FA49D9F4EEC67A68
:1047E000F1EE10FAC0F2BF803046BBF1020F43F881
:1047F00022002AD0D9F808000844D0ED007A66EEED
:10480000A77AF4EEC77AF1EE10FA35D9F4EEC67A4B
:10481000F1EE10FAC0F2AE8030464AF82200D9F824
:104820000C000144D1ED007A66EEA77AF4EEC77A67
:10483000F1EE10FA1ED9F4EEC67AF1EE10FAC0F2DB
:104840008B803146F86940F82210023294427FF69C
:10485000CEAB510808EB81008900D0ED007A66EEFE
:10486000A77AF4EEC77AF1EE10FAA3D86046A8E76B
:104870006046BAE76146E5E76046CEE7224649462C
:104880006046BB699847FFF7B2BBC7F810B000227B
:1048900098ED0C6A331DDFED726AD7F81CB07869A9
:1048A00056F8221007EE901A53F82210B8EEE77A65
:1048B00007EE901A51080232F8EEE77A27EE267AD0
:1048C0000AEB810E94420BEB810167EEA67A27EE8C
:1048D000067A67EE867A8EED007AC1ED007ADFD82F
:1048E0008300D7F810B07B614DE61A46C7F810B0C8
:1048F00098ED0C6A331DDFED5B6AD7F81CB0786960
:1049000036F9221007EE101A33F9221007EE901A2A
:10491000B8EEC77A51080232F8EEE77A27EE267A27
:104920000AEB810E94420BEB810167EEA67A27EE2B
:10493000067A67EE867A8EED007AC1ED007ADFD8CE
:104940008300D7F810B07B6134E5F0EE675AFEEED5
:10495000E45A15EE900A34E7F0EE675AFEEEE45A98
:1049600015EE901A6EE7F0EE675AFEEEE45A15EE79
:10497000900A3AE7F0EE675AFEEEE45A15EE900A16
:104980004BE767EEA57AFDEEE77A17EE900A00B2E4
:1049900032E567EEA57AFDEEE77A17EE900A00B2EF
:1049A0003FE5F0EE675AFEEEE05A15EE901A4CE63F
:1049B000F0EE675AFEEEE05A15EE900A30E6F0EEA1
:1049C000675AFEEEE05A15EE900AFDE5F0EE675AE2
:1049D000FEEEE05A15EE900A0AE667EEA57AFDEEC5
:1049E000E77A17EE901A09B24AE567EEA57AFDEE6E
:1049F000E77A17EE900A00B22CE5F0EE675AFEEE69
:104A0000E45A15EE902A1FE467EEA57AFDEEE77AE8
:104A100017EE902A12B2FFF731BBF0EE675AFEEEA6
:104A2000E45A15EE902AFFF7FDBBF0EE675AFEEE52
:104A3000E05A15EE902AFFF79BBBF0EE675AFEEEA8
:104A4000E05A15EE902AFFF780BB67EEA57AFDEEDF
:104A5000E77A17EE902A12B2FFF724BB82FF7F009D
:104A600000000030000000387E0080FF30B5184C98
:104A7000154685B0046004F1080EEC460FC98EE8B7
:104A80000F00D4ED047AF5EEC07A8CE80F00F1EE59
:104A900010FA1ADDB7EE006A94ED057A27EE277A50
:104AA000C6EE276A84ED0D7AC4ED0C6A6DB120461E
:104AB00040F8185F01F05CFD064903690020064AD2
:104AC0002162A262E36005B030BD012005B030BDB7
:104AD000A069022400200030000000300068083087
:104AE000704700BFB1F5807F03680A4628BF4FF4C6
:104AF0008072B1F5807F9A6094BF002001207047DA
:104B00000068183001F094BD30B5046883B00848DF
:104B10000D46A368A26A216A9B00009004F1180068
:104B200001F028FD0020C4E9000503B030BD00BF3E
:104B3000B13E000810B4074B4FF07E5130240022E4
:104B4000032019619C60D8605DF8044B5961C3E98A
:104B500006227047A0690224704700BF254A937857
:104B600003B970470B68002BFBD04FF0000C70B5F9
:104B70006546A3EB0C04032C34D910F80C60844474
:104B800016F00E0F06F00F042CD00F2C2AD0144470
:104B900094F8104834B3013C0CF1010E5EFA84FE27
:104BA000D2F80434D2F80844013B1B1BC3F30903B9
:104BB000F3B11CF8016FD2F80434D2F80844013B79
:104BC0001B1BC3F30903002BF5D0D2F80834F445BE
:104BD00003F101041344C4F309041E71C2F808442C
:104BE000DED10B680435ADB29D42AC46C1D370BD79
:104BF0009370F6E7D86902244FF0010CCAB20F4B4C
:104C0000A2EB0C02B2FA82F210B552090C4C82B03F
:104C1000046020466170114683F800C001920AF0DA
:104C200011FD00230A20A37001F0CAFD019A20465D
:104C3000044902B0BDE810400AF08ABD048D022488
:104C4000D86902245D4B0008012203689A707047FE
:104C50000368D3F80804D3F80434C01AC0F3090079
:104C6000704700BF0268D2F80834D2F804145B1A07
:104C7000C3F30903002BF6D0D2F80434D118013362
:104C8000C3F309030879C2F80434704703689878BD
:104C9000704700BF0368D3F80424C3F808247047A2
:104CA00010B5104B104C03F1100E04F5016C0FCB36
:104CB0008CE80F009EE80F0004F5026C8CE80F00F2
:104CC0000A484FF60F010723094AC4F83008204666
:104CD000A4F8341884F836380649BDE8104011F0BD
:104CE000C5BA00BF34880108D869022480707FF0FB
:104CF00000000024594B000882B04FF0000C032341
:104D0000ADF80410BDF8042080F810C00280438084
:104D100002B070472DE9F04FBE4E00258FB0BE4C5B
:104D2000037006F140034260074601928846202244
:104D300029463046C4F85831C4F85461CDE90355CA
:104D4000CDE90555CDE90755CDE90955CDE90B5517
:104D500012F012FD2022294604F59970C4F8215161
:104D6000C4F82551C4F82951C4F82D5112F004FD9E
:104D7000019B84F8385284F820317A68002A5FD089
:104D80002B464146B64604F5907599464FF0010A08
:104D900003EB0310D1F800B0D1F804800133D1F84F
:104DA00008C02218CE6844F800B0C2F80480C2F8E7
:104DB00008C0D660087C2EF8029B10740A7C05F8A7
:104DC000012F002A69D07A68113184F838A29A42FA
:104DD000DED84FF4802291489DF8043008214FF02E
:104DE00000084FF00009C4F874310023C4E95702E9
:104DF0000122C4F8643184F87031C4E95A2194F86E
:104E00003812C4E9608981B3C4F88821002284F88B
:104E1000713184F878313B78C4E96322A3B301226D
:104E200000200121013B84F89421C4E96801082B8A
:104E30002CD8DFE803F0ABB0B5BABFC4C9CFD600F9
:104E40009DF804300121C4F86421C4F874314FF492
:104E5000802384F87021714AC4E957230823002273
:104E6000C4E95A130023C4E960230123002284F813
:104E70007131002384F878310323C4F888313B78FA
:104E8000C4E96322002BCAD184F89431644802F04B
:104E900017FE034638B1FFBEFEE77A6811319A4229
:104EA0003FF676AF95E703A95D48039302F066FFEE
:104EB0000546002868D1022240F2FF73CDE908239D
:104EC00000230422CDE90A2394F82031002B00F0BE
:104ED000D5804FF0060921E0022B00F08980012BDC
:104EE00040F0C4809AF80130012B00F0C180002B03
:104EF0004C4B18BF002306A94948CDE9063902F0FA
:104F00000BFA002840F0BF80013594F82031EDB253
:104F1000AB4240F2B380444B53F825902FB207EBDD
:104F2000071704EB070A504600F0F6F905EB0513E6
:104F300023441B7C042B7DDC022B00F3918000F0CA
:104F40008D806319002283F81021E35D002BC3D10B
:104F50009AF80130062B00F08580072B00F08A803C
:104F6000022B00F09680032B00F09580002B00F0C0
:104F70009680012B00F09180042B00F09280052B8D
:104F80002A4B18BF0023B6E7FFBEFEE703224023EB
:104F9000C4E966237AE707226023C4E9662375E73C
:104FA0000F228023C4E9662370E71F22A023C4E9EF
:104FB00066236BE73F22C023C4E9662366E77F22AE
:104FC000E023C4E9662361E7FF224FF48073C4E95C
:104FD00066235BE740F2FF124FF49073C4E9662347
:104FE00054E740F2FF324FF4A073C4E966234DE763
:104FF0009AF80130042B37D0052B3DD0002B40D040
:10500000012B42D0022B42D0032B094B18BF0023A7
:1050100071E700BF004000301072022400200240FF
:105020006C7302240002B025108A01080000B84FFA
:105030000020903603233E1D04EB05084FF0000BC3
:10504000264488F8103130460BF1010B00F064F96A
:1050500098F8103104365B45F5DC76E70123EAE782
:105060000223E8E7104B46E7104B44E7002342E7F2
:105070000F4B40E70F4B3EE70F4B3CE70FB0BDE84F
:10508000F08F0E4B37E7FFBEFEE70D4B33E70D4BBE
:1050900031E70D4B2FE70D4B2DE70D4B2BE70D4B5C
:1050A00029E70D4B27E700BF0800900C1000C01047
:1050B0002000F0148000501D000180210004002A0F
:1050C0000008302E001060320040C03A0080F03EF0
:1050D00000005247000021430000844B38B5094CC2
:1050E00040F2FF724FF0011104F5AE75284602F050
:1050F000F3FD94F82021D4F854112846BDE8384037
:1051000002F05EBB10720224064B0F29D3F8543113
:1051100098BF03EB41031B8800EE103ABBEEC80AB0
:10512000704700BF10720224214B02689A4200D0DF
:105130007047204A00232048D2F8D81030B51F4CC1
:1051400041F0200183B0C4F8C001092004F5E075E6
:10515000C4E971034FF48060C2F8D810D2F8D820A7
:105160004FF40061C4E9733094F8380202F0200271
:10517000C4F8D4114FF40051984201922846C4F863
:10518000D811C4E97833019B14BF00234FF4807316
:10519000C4F8DC3103F018F808B1FFBEFEE704F5EF
:1051A000AE73C4F8A851C4F8F83103B030BD00BFE5
:1051B00000200240004402584000024010720224C5
:1051C000014803F079BB00BFD073022402682DE9C7
:1051D000F84F4B4B9A4201D0BDE8F88F494D95F8F6
:1051E0003832002BF8D095F82031002B77D00024EE
:1051F00005F10C0905F5997605F59077A04613E0C1
:1052000003F0010117F811BCA9F1080000F06EF9D4
:10521000BBF1010F25D895F82031013409F11109AE
:105220000236A2B293422BD917F8012F002AF4D0EC
:10523000D5F854310021327833F81400D5F85831BC
:1052400003EB041323F81200338801339BB233803D
:105250005FFA83FA3A789A42D2D88A46A6F8008052
:10526000D0E7CAF34001A9F1040000F03FF9BBF117
:10527000020FCAF38001CED0484600F037F9CAE7E2
:10528000002395F83802204909229842C5F8C83110
:105290004FF48060C5F8C011C5F8C4214FF4006117
:1052A0004FF40052C5F8CC3108BF4FF48073C5F8F5
:1052B000D821C5E9740100221448C5E97732C5F840
:1052C000E42102F081FF08B1FFBEFEE795F820213E
:1052D000D5F854110E48BDE8F84F02F071BA0A49EA
:1052E00009224FF48060C5F8C831C5E970124FF447
:1052F00000614FF40052C5E97330C5E97512DAE771
:10530000002002401072022440000240D0730224A8
:105310006C730224704700BF8378022B30B50446BB
:105320008FB037D0032B33D0012B31D000230A9319
:10533000E378012B2AD0022B28D000230B930023E3
:1053400020460C9301F062FE0546204601F066FE01
:1053500023780990082B13D8DFE803F01F32455853
:105360006B7E91A40500594BD3F8E02042F4807283
:10537000C3F8E020D3F8E03003F480730893089B6F
:1053800009A9284603F0EAFD0FB030BD0B93D6E71C
:105390000A93CDE711230A93CAE74C4B09A9284683
:1053A000D3F8E02042F00102C3F8E020D3F8E03067
:1053B00003F001030093009B03F0D0FD0FB030BD5C
:1053C000424B09A92846D3F8E02042F00202C3F874
:1053D000E020D3F8E03003F002030193019B03F0D7
:1053E000BDFD0FB030BD394B09A92846D3F8E020E8
:1053F00042F00402C3F8E020D3F8E03003F00403E5
:105400000293029B03F0AAFD0FB030BD2F4B09A9F8
:105410002846D3F8E02042F00802C3F8E020D3F891
:10542000E03003F008030393039B03F097FD0FB0F4
:1054300030BD264B09A92846D3F8E02042F01002DF
:10544000C3F8E020D3F8E03003F010030493049B8A
:1054500003F084FD0FB030BD1C4B09A92846D3F8DA
:10546000E02042F02002C3F8E020D3F8E03003F05F
:1054700020030593059B03F071FD0FB030BD134B66
:1054800009A92846D3F8E02042F04002C3F8E02002
:10549000D3F8E03003F040030693069B03F05EFD73
:1054A0000FB030BD094B09A92846D3F8E02042F0DF
:1054B0008002C3F8E020D3F8E03003F080030793C4
:1054C000079B03F04BFD0FB030BD00BF00440258F6
:1054D00038B5054601F09AFD0446284601F09EFDC8
:1054E00001462046BDE8384003F040BF70B506468F
:1054F0000D4601F08BFD0446304601F08FFD2A1E5B
:105500000146204618BF0122BDE8704003F034BFB9
:105510000023122270B586B0CDE9022304930368FC
:10552000032B01D804230593061D841D304601F08A
:105530006DFD0546304601F071FD034601A9284680
:10554000019303F00BFD204601F060FD0346204669
:105550001C4601F063FD01A903462046019303F0B8
:10556000FDFC06B070BD00BF634A0368934210B5EE
:105570008CB028D0614A934258D0614A934200F0DF
:105580009480604A934201D00CB010BD5E4C5F48DD
:10559000D4F8E03043F00203C4F8E030D4F8E0304F
:1055A00003F002030A930A9BFFF7B2FFD4F8F4302A
:1055B00043F08003C4F8F430D4F8F43003F08003EF
:1055C0000B930B9BE0E7504C5148D4F8E03043F08C
:1055D0000203C4F8E030D4F8E03003F00203019392
:1055E000019BFFF795FFD4F8E83000221F2043F419
:1055F00000131146C4F8E830D4F8E83003F400137F
:105600000293029BD4F8D83043F00103C4F8D83099
:10561000D4F8D83003F001030393039B02F022FC7B
:105620001F200CB0BDE8104002F05ABC364C39487F
:10563000D4F8E03043F08003C4F8E030D4F8E03030
:1056400003F080030493049BD4F8E03043F002039A
:10565000C4F8E030D4F8E03003F002030593059B72
:10566000FFF756FFD4F8E8300022212043F48003EE
:105670001146C4F8E830D4F8E83003F48003069308
:10568000069BD4F8D83043F00103C4F8D830D4F8DE
:10569000D83003F001030793079B02F0E3FB2120BE
:1056A0000CB0BDE8104002F01BBC1B48FFF730FFF8
:1056B000154B00224820D3F8E840114644F400047A
:1056C000C3F8E840D3F8E84004F400040894089CC8
:1056D000D3F8D84044F00104C3F8D840D3F8D83008
:1056E00003F001030993099B02F0BCFB48200CB0B6
:1056F000BDE8104002F0F4BB0054004000580040E8
:10570000005C0040001C005800440258D876022477
:105710005074022428750224007602242DE9F043F7
:105720001A4B87B000254FF010099E46EC46184BE7
:10573000FF22E04667461A700EF118060EF130049B
:10574000CDE90055CDE90255ADF80090BCE80F0059
:10575000CDE90455AEE80F009CE803000095ADF8D4
:1057600000908EE80300B8E80F000FC69CE8030025
:105770000095ADF8009086E803000FCF0FC49CE8B9
:10578000030084E8030007B0BDE8F08310000024A4
:105790004C74022410B5EFF3108472B6084B1A78DB
:1057A000120602D504B962B610BD1B78D82205488E
:1057B0005BB202FB0300143003F07EF8F2E700BF97
:1057C0004C74022450740224014804F06DBC00BFE4
:1057D000DC740224014804F067BC00BFB4750224E5
:1057E000014804F061BC00BF8C7602242DE9F0432F
:1057F0000F68D8243F4D85B007FB04F4032F05EB59
:105800000403036040DCCB680E46012B3CD84DD02E
:105810004FF0D808B646DFF8FC9008FB0758BEE802
:105820000F00C446ACE80F00DEF800300DF1100E9A
:10583000CCF80030D8F808C099E80F000EE90F0046
:105840000EEB8703BCF1010F53F8103CC8F88C3005
:1058500031D0BCF1020F42D0BCF1000F35D0317C09
:105860008C34D823002201202C4403FB0753490029
:10587000C3E92602C3F894102046C3E92822C3E9ED
:105880002A2204F003FA18B1012005B0BDE8F08324
:105890000146204604F014FC0028F5D101462046BC
:1058A00004F038FC003818BF0120EEE70B7C103BF9
:1058B000672BADD9E8E701F0EFF80F4B98420CBF2A
:1058C0000E4B0F4BC8F89030C9E701F0E5F80A4BD2
:1058D00098420CBF0B4B0C4BC8F89030BFE701F05F
:1058E000DBF8054B98420CBF084B094BC8F89030C9
:1058F000B5E700BF50740224000E27072D0FB0300B
:105900003211D0205F4390608A62E030200BA010FB
:105910001A098010548801082DE9F041D0F8008060
:1059200082B00D4617461E4608F18C04204604F04E
:10593000C3FB2028FAD1D8F80C3073B96D0020468B
:10594000089C33463A46A9B2009404F0F5F90038B1
:1059500018BF012002B0BDE8F081089B32463946ED
:10596000204604F0BDFAF2E7044B10221A7483F8C3
:10597000E82083F8C02183F89822704750740224ED
:1059800030B5002395B04FF48071062204460B9386
:1059900006921393CDE90C13CDE90E33CDE9113303
:1059A00001F07CF807282BD004F1100541F2883271
:1059B00006A9284605F000FB28B10123184684F803
:1059C0005C3015B030BD0222022306A92846CDE97D
:1059D000002310220123CDE9022300224FF480038B
:1059E000CDE9042305224FF0807306926A460F9397
:1059F00041F2883305F04CFC0028DED115B030BDF3
:105A00000323012084F85C3015B030BD0000000095
:105A100070B50023A4B04FF080724FF48075044637
:105A2000ADF806300D93CDE910320122CDE90E53C9
:105A3000CDE91223CDE91433002943D0F02300F13E
:105A4000100508AEADF80630C02341F28832314669
:105A50002846089305F0B0FA28B10123184684F8C7
:105A60005C3024B070BD41F288320DF10601284649
:105A700005F00CFB03460028EFD105224FF480719E
:105A80001E93284616924FF080721B9321931F920B
:105A900002AA9FED1F7BCDE91C13CDE922338DEDCA
:105AA000027B9FED1D7B41F2883316A98DED047BAF
:105AB0009FED1B7B8DED067B05F0EAFB0028CCD12A
:105AC00024B070BD00F1100508AE612341F28832A8
:105AD00031462846089305F06FFA0028BDD141F2FF
